{
  "_format": "hh-sol-artifact-1",
  "contractName": "NftLowGasContract",
  "sourceName": "contracts/NftLowGasContract.sol",
  "abi": [
    {
      "inputs": [
        {
          "internalType": "string",
          "name": "_tokenName",
          "type": "string"
        },
        {
          "internalType": "string",
          "name": "_tokenSymbol",
          "type": "string"
        },
        {
          "internalType": "uint256",
          "name": "_cost",
          "type": "uint256"
        },
        {
          "internalType": "uint256",
          "name": "_maxSupply",
          "type": "uint256"
        },
        {
          "internalType": "uint256",
          "name": "_maxMintAmountPerTx",
          "type": "uint256"
        },
        {
          "internalType": "string",
          "name": "_hiddenMetadataUri",
          "type": "string"
        }
      ],
      "stateMutability": "nonpayable",
      "type": "constructor"
    },
    {
      "inputs": [],
      "name": "ApprovalCallerNotOwnerNorApproved",
      "type": "error"
    },
    {
      "inputs": [],
      "name": "ApprovalQueryForNonexistentToken",
      "type": "error"
    },
    {
      "inputs": [],
      "name": "ApproveToCaller",
      "type": "error"
    },
    {
      "inputs": [],
      "name": "BalanceQueryForZeroAddress",
      "type": "error"
    },
    {
      "inputs": [],
      "name": "InvalidQueryRange",
      "type": "error"
    },
    {
      "inputs": [],
      "name": "MintERC2309QuantityExceedsLimit",
      "type": "error"
    },
    {
      "inputs": [],
      "name": "MintToZeroAddress",
      "type": "error"
    },
    {
      "inputs": [],
      "name": "MintZeroQuantity",
      "type": "error"
    },
    {
      "inputs": [
        {
          "internalType": "address",
          "name": "user",
          "type": "address"
        }
      ],
      "name": "NFT__AlreadyClaimed",
      "type": "error"
    },
    {
      "inputs": [],
      "name": "NFT__ContractIsPaused",
      "type": "error"
    },
    {
      "inputs": [],
      "name": "NFT__InsufficientFunds",
      "type": "error"
    },
    {
      "inputs": [],
      "name": "NFT__InvalidMintAmount",
      "type": "error"
    },
    {
      "inputs": [
        {
          "internalType": "address",
          "name": "user",
          "type": "address"
        }
      ],
      "name": "NFT__InvalidProof",
      "type": "error"
    },
    {
      "inputs": [],
      "name": "NFT__MaxSupplyExceeded",
      "type": "error"
    },
    {
      "inputs": [],
      "name": "NFT__OnlyWhitelistMint",
      "type": "error"
    },
    {
      "inputs": [
        {
          "internalType": "uint256",
          "name": "tokenId",
          "type": "uint256"
        }
      ],
      "name": "NFT__QueryForNonExistentToken",
      "type": "error"
    },
    {
      "inputs": [],
      "name": "NFT__WhitelistNotEnabled",
      "type": "error"
    },
    {
      "inputs": [],
      "name": "OwnerQueryForNonexistentToken",
      "type": "error"
    },
    {
      "inputs": [],
      "name": "OwnershipNotInitializedForExtraData",
      "type": "error"
    },
    {
      "inputs": [],
      "name": "TransferCallerNotOwnerNorApproved",
      "type": "error"
    },
    {
      "inputs": [],
      "name": "TransferFromIncorrectOwner",
      "type": "error"
    },
    {
      "inputs": [],
      "name": "TransferToNonERC721ReceiverImplementer",
      "type": "error"
    },
    {
      "inputs": [],
      "name": "TransferToZeroAddress",
      "type": "error"
    },
    {
      "inputs": [],
      "name": "URIQueryForNonexistentToken",
      "type": "error"
    },
    {
      "anonymous": false,
      "inputs": [
        {
          "indexed": true,
          "internalType": "address",
          "name": "owner",
          "type": "address"
        },
        {
          "indexed": true,
          "internalType": "address",
          "name": "approved",
          "type": "address"
        },
        {
          "indexed": true,
          "internalType": "uint256",
          "name": "tokenId",
          "type": "uint256"
        }
      ],
      "name": "Approval",
      "type": "event"
    },
    {
      "anonymous": false,
      "inputs": [
        {
          "indexed": true,
          "internalType": "address",
          "name": "owner",
          "type": "address"
        },
        {
          "indexed": true,
          "internalType": "address",
          "name": "operator",
          "type": "address"
        },
        {
          "indexed": false,
          "internalType": "bool",
          "name": "approved",
          "type": "bool"
        }
      ],
      "name": "ApprovalForAll",
      "type": "event"
    },
    {
      "anonymous": false,
      "inputs": [
        {
          "indexed": true,
          "internalType": "uint256",
          "name": "fromTokenId",
          "type": "uint256"
        },
        {
          "indexed": false,
          "internalType": "uint256",
          "name": "toTokenId",
          "type": "uint256"
        },
        {
          "indexed": true,
          "internalType": "address",
          "name": "from",
          "type": "address"
        },
        {
          "indexed": true,
          "internalType": "address",
          "name": "to",
          "type": "address"
        }
      ],
      "name": "ConsecutiveTransfer",
      "type": "event"
    },
    {
      "anonymous": false,
      "inputs": [
        {
          "indexed": true,
          "internalType": "address",
          "name": "previousOwner",
          "type": "address"
        },
        {
          "indexed": true,
          "internalType": "address",
          "name": "newOwner",
          "type": "address"
        }
      ],
      "name": "OwnershipTransferred",
      "type": "event"
    },
    {
      "anonymous": false,
      "inputs": [
        {
          "indexed": true,
          "internalType": "address",
          "name": "from",
          "type": "address"
        },
        {
          "indexed": true,
          "internalType": "address",
          "name": "to",
          "type": "address"
        },
        {
          "indexed": true,
          "internalType": "uint256",
          "name": "tokenId",
          "type": "uint256"
        }
      ],
      "name": "Transfer",
      "type": "event"
    },
    {
      "inputs": [
        {
          "internalType": "address",
          "name": "to",
          "type": "address"
        },
        {
          "internalType": "uint256",
          "name": "tokenId",
          "type": "uint256"
        }
      ],
      "name": "approve",
      "outputs": [],
      "stateMutability": "nonpayable",
      "type": "function"
    },
    {
      "inputs": [
        {
          "internalType": "address",
          "name": "owner",
          "type": "address"
        }
      ],
      "name": "balanceOf",
      "outputs": [
        {
          "internalType": "uint256",
          "name": "",
          "type": "uint256"
        }
      ],
      "stateMutability": "view",
      "type": "function"
    },
    {
      "inputs": [],
      "name": "cost",
      "outputs": [
        {
          "internalType": "uint256",
          "name": "",
          "type": "uint256"
        }
      ],
      "stateMutability": "view",
      "type": "function"
    },
    {
      "inputs": [
        {
          "internalType": "uint256",
          "name": "tokenId",
          "type": "uint256"
        }
      ],
      "name": "explicitOwnershipOf",
      "outputs": [
        {
          "components": [
            {
              "internalType": "address",
              "name": "addr",
              "type": "address"
            },
            {
              "internalType": "uint64",
              "name": "startTimestamp",
              "type": "uint64"
            },
            {
              "internalType": "bool",
              "name": "burned",
              "type": "bool"
            },
            {
              "internalType": "uint24",
              "name": "extraData",
              "type": "uint24"
            }
          ],
          "internalType": "struct IERC721A.TokenOwnership",
          "name": "",
          "type": "tuple"
        }
      ],
      "stateMutability": "view",
      "type": "function"
    },
    {
      "inputs": [
        {
          "internalType": "uint256[]",
          "name": "tokenIds",
          "type": "uint256[]"
        }
      ],
      "name": "explicitOwnershipsOf",
      "outputs": [
        {
          "components": [
            {
              "internalType": "address",
              "name": "addr",
              "type": "address"
            },
            {
              "internalType": "uint64",
              "name": "startTimestamp",
              "type": "uint64"
            },
            {
              "internalType": "bool",
              "name": "burned",
              "type": "bool"
            },
            {
              "internalType": "uint24",
              "name": "extraData",
              "type": "uint24"
            }
          ],
          "internalType": "struct IERC721A.TokenOwnership[]",
          "name": "",
          "type": "tuple[]"
        }
      ],
      "stateMutability": "view",
      "type": "function"
    },
    {
      "inputs": [
        {
          "internalType": "uint256",
          "name": "tokenId",
          "type": "uint256"
        }
      ],
      "name": "getApproved",
      "outputs": [
        {
          "internalType": "address",
          "name": "",
          "type": "address"
        }
      ],
      "stateMutability": "view",
      "type": "function"
    },
    {
      "inputs": [],
      "name": "hiddenMetadataUri",
      "outputs": [
        {
          "internalType": "string",
          "name": "",
          "type": "string"
        }
      ],
      "stateMutability": "view",
      "type": "function"
    },
    {
      "inputs": [
        {
          "internalType": "address",
          "name": "owner",
          "type": "address"
        },
        {
          "internalType": "address",
          "name": "operator",
          "type": "address"
        }
      ],
      "name": "isApprovedForAll",
      "outputs": [
        {
          "internalType": "bool",
          "name": "",
          "type": "bool"
        }
      ],
      "stateMutability": "view",
      "type": "function"
    },
    {
      "inputs": [],
      "name": "maxMintAmountPerTx",
      "outputs": [
        {
          "internalType": "uint256",
          "name": "",
          "type": "uint256"
        }
      ],
      "stateMutability": "view",
      "type": "function"
    },
    {
      "inputs": [],
      "name": "maxSupply",
      "outputs": [
        {
          "internalType": "uint256",
          "name": "",
          "type": "uint256"
        }
      ],
      "stateMutability": "view",
      "type": "function"
    },
    {
      "inputs": [],
      "name": "merkleRoot",
      "outputs": [
        {
          "internalType": "bytes32",
          "name": "",
          "type": "bytes32"
        }
      ],
      "stateMutability": "view",
      "type": "function"
    },
    {
      "inputs": [
        {
          "internalType": "uint256",
          "name": "_mintAmount",
          "type": "uint256"
        }
      ],
      "name": "mint",
      "outputs": [],
      "stateMutability": "payable",
      "type": "function"
    },
    {
      "inputs": [],
      "name": "name",
      "outputs": [
        {
          "internalType": "string",
          "name": "",
          "type": "string"
        }
      ],
      "stateMutability": "view",
      "type": "function"
    },
    {
      "inputs": [],
      "name": "owner",
      "outputs": [
        {
          "internalType": "address",
          "name": "",
          "type": "address"
        }
      ],
      "stateMutability": "view",
      "type": "function"
    },
    {
      "inputs": [
        {
          "internalType": "uint256",
          "name": "tokenId",
          "type": "uint256"
        }
      ],
      "name": "ownerOf",
      "outputs": [
        {
          "internalType": "address",
          "name": "",
          "type": "address"
        }
      ],
      "stateMutability": "view",
      "type": "function"
    },
    {
      "inputs": [],
      "name": "paused",
      "outputs": [
        {
          "internalType": "bool",
          "name": "",
          "type": "bool"
        }
      ],
      "stateMutability": "view",
      "type": "function"
    },
    {
      "inputs": [],
      "name": "renounceOwnership",
      "outputs": [],
      "stateMutability": "nonpayable",
      "type": "function"
    },
    {
      "inputs": [],
      "name": "revealed",
      "outputs": [
        {
          "internalType": "bool",
          "name": "",
          "type": "bool"
        }
      ],
      "stateMutability": "view",
      "type": "function"
    },
    {
      "inputs": [
        {
          "internalType": "address",
          "name": "from",
          "type": "address"
        },
        {
          "internalType": "address",
          "name": "to",
          "type": "address"
        },
        {
          "internalType": "uint256",
          "name": "tokenId",
          "type": "uint256"
        }
      ],
      "name": "safeTransferFrom",
      "outputs": [],
      "stateMutability": "nonpayable",
      "type": "function"
    },
    {
      "inputs": [
        {
          "internalType": "address",
          "name": "from",
          "type": "address"
        },
        {
          "internalType": "address",
          "name": "to",
          "type": "address"
        },
        {
          "internalType": "uint256",
          "name": "tokenId",
          "type": "uint256"
        },
        {
          "internalType": "bytes",
          "name": "_data",
          "type": "bytes"
        }
      ],
      "name": "safeTransferFrom",
      "outputs": [],
      "stateMutability": "nonpayable",
      "type": "function"
    },
    {
      "inputs": [
        {
          "internalType": "address",
          "name": "operator",
          "type": "address"
        },
        {
          "internalType": "bool",
          "name": "approved",
          "type": "bool"
        }
      ],
      "name": "setApprovalForAll",
      "outputs": [],
      "stateMutability": "nonpayable",
      "type": "function"
    },
    {
      "inputs": [
        {
          "internalType": "uint256",
          "name": "_cost",
          "type": "uint256"
        }
      ],
      "name": "setCost",
      "outputs": [],
      "stateMutability": "payable",
      "type": "function"
    },
    {
      "inputs": [
        {
          "internalType": "string",
          "name": "_hiddenMetadataUri",
          "type": "string"
        }
      ],
      "name": "setHiddenMetadataUri",
      "outputs": [],
      "stateMutability": "payable",
      "type": "function"
    },
    {
      "inputs": [
        {
          "internalType": "uint256",
          "name": "_maxMintAmountPerTx",
          "type": "uint256"
        }
      ],
      "name": "setMaxMintAmountPerTx",
      "outputs": [],
      "stateMutability": "payable",
      "type": "function"
    },
    {
      "inputs": [
        {
          "internalType": "bytes32",
          "name": "_merkleRoot",
          "type": "bytes32"
        }
      ],
      "name": "setMerkleRoot",
      "outputs": [],
      "stateMutability": "payable",
      "type": "function"
    },
    {
      "inputs": [
        {
          "internalType": "bool",
          "name": "_state",
          "type": "bool"
        }
      ],
      "name": "setPaused",
      "outputs": [],
      "stateMutability": "payable",
      "type": "function"
    },
    {
      "inputs": [
        {
          "internalType": "bool",
          "name": "_state",
          "type": "bool"
        }
      ],
      "name": "setRevealed",
      "outputs": [],
      "stateMutability": "payable",
      "type": "function"
    },
    {
      "inputs": [
        {
          "internalType": "string",
          "name": "_uriPrefix",
          "type": "string"
        }
      ],
      "name": "setUriPrefix",
      "outputs": [],
      "stateMutability": "payable",
      "type": "function"
    },
    {
      "inputs": [
        {
          "internalType": "string",
          "name": "_uriSuffix",
          "type": "string"
        }
      ],
      "name": "setUriSuffix",
      "outputs": [],
      "stateMutability": "payable",
      "type": "function"
    },
    {
      "inputs": [
        {
          "internalType": "bool",
          "name": "_state",
          "type": "bool"
        }
      ],
      "name": "setWhitelistMintEnabled",
      "outputs": [],
      "stateMutability": "payable",
      "type": "function"
    },
    {
      "inputs": [
        {
          "internalType": "bytes4",
          "name": "interfaceId",
          "type": "bytes4"
        }
      ],
      "name": "supportsInterface",
      "outputs": [
        {
          "internalType": "bool",
          "name": "",
          "type": "bool"
        }
      ],
      "stateMutability": "view",
      "type": "function"
    },
    {
      "inputs": [],
      "name": "symbol",
      "outputs": [
        {
          "internalType": "string",
          "name": "",
          "type": "string"
        }
      ],
      "stateMutability": "view",
      "type": "function"
    },
    {
      "inputs": [
        {
          "internalType": "uint256",
          "name": "_tokenId",
          "type": "uint256"
        }
      ],
      "name": "tokenURI",
      "outputs": [
        {
          "internalType": "string",
          "name": "",
          "type": "string"
        }
      ],
      "stateMutability": "view",
      "type": "function"
    },
    {
      "inputs": [
        {
          "internalType": "address",
          "name": "owner",
          "type": "address"
        }
      ],
      "name": "tokensOfOwner",
      "outputs": [
        {
          "internalType": "uint256[]",
          "name": "",
          "type": "uint256[]"
        }
      ],
      "stateMutability": "view",
      "type": "function"
    },
    {
      "inputs": [
        {
          "internalType": "address",
          "name": "owner",
          "type": "address"
        },
        {
          "internalType": "uint256",
          "name": "start",
          "type": "uint256"
        },
        {
          "internalType": "uint256",
          "name": "stop",
          "type": "uint256"
        }
      ],
      "name": "tokensOfOwnerIn",
      "outputs": [
        {
          "internalType": "uint256[]",
          "name": "",
          "type": "uint256[]"
        }
      ],
      "stateMutability": "view",
      "type": "function"
    },
    {
      "inputs": [],
      "name": "totalSupply",
      "outputs": [
        {
          "internalType": "uint256",
          "name": "",
          "type": "uint256"
        }
      ],
      "stateMutability": "view",
      "type": "function"
    },
    {
      "inputs": [
        {
          "internalType": "address",
          "name": "from",
          "type": "address"
        },
        {
          "internalType": "address",
          "name": "to",
          "type": "address"
        },
        {
          "internalType": "uint256",
          "name": "tokenId",
          "type": "uint256"
        }
      ],
      "name": "transferFrom",
      "outputs": [],
      "stateMutability": "nonpayable",
      "type": "function"
    },
    {
      "inputs": [
        {
          "internalType": "address",
          "name": "newOwner",
          "type": "address"
        }
      ],
      "name": "transferOwnership",
      "outputs": [],
      "stateMutability": "nonpayable",
      "type": "function"
    },
    {
      "inputs": [],
      "name": "uriPrefix",
      "outputs": [
        {
          "internalType": "string",
          "name": "",
          "type": "string"
        }
      ],
      "stateMutability": "view",
      "type": "function"
    },
    {
      "inputs": [],
      "name": "uriSuffix",
      "outputs": [
        {
          "internalType": "string",
          "name": "",
          "type": "string"
        }
      ],
      "stateMutability": "view",
      "type": "function"
    },
    {
      "inputs": [
        {
          "internalType": "uint256",
          "name": "_mintAmount",
          "type": "uint256"
        },
        {
          "internalType": "bytes32[]",
          "name": "_merkleProof",
          "type": "bytes32[]"
        }
      ],
      "name": "whitelistMint",
      "outputs": [],
      "stateMutability": "payable",
      "type": "function"
    },
    {
      "inputs": [],
      "name": "whitelistMintEnabled",
      "outputs": [
        {
          "internalType": "bool",
          "name": "",
          "type": "bool"
        }
      ],
      "stateMutability": "view",
      "type": "function"
    },
    {
      "inputs": [],
      "name": "withdraw",
      "outputs": [],
      "stateMutability": "payable",
      "type": "function"
    }
  ],
  "bytecode": "0x60a060405260405180602001604052806000815250600a90805190602001906200002b92919062000284565b506040518060400160405280600581526020017f2e6a736f6e000000000000000000000000000000000000000000000000000000815250600b90805190602001906200007992919062000284565b506001600f60006101000a81548160ff0219169083151502179055506000600f60016101000a81548160ff0219169083151502179055506000600f60026101000a81548160ff021916908315150217905550348015620000d857600080fd5b5060405162004cdd38038062004cdd8339818101604052810190620000fe91906200050c565b858581600290805190602001906200011892919062000284565b5080600390805190602001906200013192919062000284565b5062000142620001ad60201b60201c565b60008190555050506200016a6200015e620001b660201b60201c565b620001be60201b60201c565b6001600981905550826080818152505080600c90805190602001906200019292919062000284565b5083600d8190555081600e819055505050505050506200066a565b60006001905090565b600033905090565b6000600860009054906101000a900473ffffffffffffffffffffffffffffffffffffffff16905081600860006101000a81548173ffffffffffffffffffffffffffffffffffffffff021916908373ffffffffffffffffffffffffffffffffffffffff1602179055508173ffffffffffffffffffffffffffffffffffffffff168173ffffffffffffffffffffffffffffffffffffffff167f8be0079c531659141344cd1fd0a4f28419497f9722a3daafe3b4186f6b6457e060405160405180910390a35050565b828054620002929062000634565b90600052602060002090601f016020900481019282620002b6576000855562000302565b82601f10620002d157805160ff191683800117855562000302565b8280016001018555821562000302579182015b8281111562000301578251825591602001919060010190620002e4565b5b50905062000311919062000315565b5090565b5b808211156200033057600081600090555060010162000316565b5090565b6000604051905090565b600080fd5b600080fd5b600080fd5b600080fd5b6000601f19601f8301169050919050565b7f4e487b7100000000000000000000000000000000000000000000000000000000600052604160045260246000fd5b6200039d8262000352565b810181811067ffffffffffffffff82111715620003bf57620003be62000363565b5b80604052505050565b6000620003d462000334565b9050620003e2828262000392565b919050565b600067ffffffffffffffff82111562000405576200040462000363565b5b620004108262000352565b9050602081019050919050565b60005b838110156200043d57808201518184015260208101905062000420565b838111156200044d576000848401525b50505050565b60006200046a6200046484620003e7565b620003c8565b9050828152602081018484840111156200048957620004886200034d565b5b620004968482856200041d565b509392505050565b600082601f830112620004b657620004b562000348565b5b8151620004c884826020860162000453565b91505092915050565b6000819050919050565b620004e681620004d1565b8114620004f257600080fd5b50565b6000815190506200050681620004db565b92915050565b60008060008060008060c087890312156200052c576200052b6200033e565b5b600087015167ffffffffffffffff8111156200054d576200054c62000343565b5b6200055b89828a016200049e565b965050602087015167ffffffffffffffff8111156200057f576200057e62000343565b5b6200058d89828a016200049e565b9550506040620005a089828a01620004f5565b9450506060620005b389828a01620004f5565b9350506080620005c689828a01620004f5565b92505060a087015167ffffffffffffffff811115620005ea57620005e962000343565b5b620005f889828a016200049e565b9150509295509295509295565b7f4e487b7100000000000000000000000000000000000000000000000000000000600052602260045260246000fd5b600060028204905060018216806200064d57607f821691505b6020821081141562000664576200066362000605565b5b50919050565b6080516146496200069460003960008181611c840152818161238101526125a101526146496000f3fe60806040526004361061025c5760003560e01c806370a0823111610144578063a45ba8e7116100b6578063c87b56dd1161007a578063c87b56dd14610862578063d2cab0561461089f578063d5abeb01146108bb578063e0a80853146108e6578063e985e9c514610902578063f2fde38b1461093f5761025c565b8063a45ba8e714610799578063b071401b146107c4578063b767a098146107e0578063b88d4fde146107fc578063c23dc68f146108255761025c565b80638da5cb5b116101085780638da5cb5b1461069657806394354fd0146106c157806395d89b41146106ec57806399a2557a14610717578063a0712d6814610754578063a22cb465146107705761025c565b806370a08231146105cd578063715018a61461060a5780637cb64759146106215780637ec4a6591461063d5780638462151c146106595761025c565b80633ccfd60b116101dd5780635503a0e8116101a15780635503a0e8146104a75780635bbb2177146104d25780635c975abb1461050f57806362b99ad41461053a5780636352211e146105655780636caede3d146105a25761025c565b80633ccfd60b1461041157806342842e0e1461041b57806344a0d68a146104445780634fdd43cb14610460578063518302271461047c5761025c565b806316ba10e01161022457806316ba10e01461035a57806316c38b3c1461037657806318160ddd1461039257806323b872dd146103bd5780632eb4a7ab146103e65761025c565b806301ffc9a71461026157806306fdde031461029e578063081812fc146102c9578063095ea7b31461030657806313faede61461032f575b600080fd5b34801561026d57600080fd5b50610288600480360381019061028391906133b0565b610968565b60405161029591906133f8565b60405180910390f35b3480156102aa57600080fd5b506102b36109fa565b6040516102c091906134ac565b60405180910390f35b3480156102d557600080fd5b506102f060048036038101906102eb9190613504565b610a8c565b6040516102fd9190613572565b60405180910390f35b34801561031257600080fd5b5061032d600480360381019061032891906135b9565b610b08565b005b34801561033b57600080fd5b50610344610c49565b6040516103519190613608565b60405180910390f35b610374600480360381019061036f9190613758565b610c4f565b005b610390600480360381019061038b91906137cd565b610ce5565b005b34801561039e57600080fd5b506103a7610d7e565b6040516103b49190613608565b60405180910390f35b3480156103c957600080fd5b506103e460048036038101906103df91906137fa565b610d95565b005b3480156103f257600080fd5b506103fb6110ba565b6040516104089190613866565b60405180910390f35b6104196110c0565b005b34801561042757600080fd5b50610442600480360381019061043d91906137fa565b611212565b005b61045e60048036038101906104599190613504565b611232565b005b61047a60048036038101906104759190613758565b6112b8565b005b34801561048857600080fd5b5061049161134e565b60405161049e91906133f8565b60405180910390f35b3480156104b357600080fd5b506104bc611361565b6040516104c991906134ac565b60405180910390f35b3480156104de57600080fd5b506104f960048036038101906104f49190613949565b6113ef565b6040516105069190613af5565b60405180910390f35b34801561051b57600080fd5b506105246114b0565b60405161053191906133f8565b60405180910390f35b34801561054657600080fd5b5061054f6114c3565b60405161055c91906134ac565b60405180910390f35b34801561057157600080fd5b5061058c60048036038101906105879190613504565b611551565b6040516105999190613572565b60405180910390f35b3480156105ae57600080fd5b506105b7611563565b6040516105c491906133f8565b60405180910390f35b3480156105d957600080fd5b506105f460048036038101906105ef9190613b17565b611576565b6040516106019190613608565b60405180910390f35b34801561061657600080fd5b5061061f61162f565b005b61063b60048036038101906106369190613b70565b6116b7565b005b61065760048036038101906106529190613758565b61173d565b005b34801561066557600080fd5b50610680600480360381019061067b9190613b17565b6117d3565b60405161068d9190613c5b565b60405180910390f35b3480156106a257600080fd5b506106ab61191d565b6040516106b89190613572565b60405180910390f35b3480156106cd57600080fd5b506106d6611947565b6040516106e39190613608565b60405180910390f35b3480156106f857600080fd5b5061070161194d565b60405161070e91906134ac565b60405180910390f35b34801561072357600080fd5b5061073e60048036038101906107399190613c7d565b6119df565b60405161074b9190613c5b565b60405180910390f35b61076e60048036038101906107699190613504565b611bf3565b005b34801561077c57600080fd5b5061079760048036038101906107929190613cd0565b611d93565b005b3480156107a557600080fd5b506107ae611f0b565b6040516107bb91906134ac565b60405180910390f35b6107de60048036038101906107d99190613504565b611f99565b005b6107fa60048036038101906107f591906137cd565b61201f565b005b34801561080857600080fd5b50610823600480360381019061081e9190613db1565b6120b8565b005b34801561083157600080fd5b5061084c60048036038101906108479190613504565b61212b565b6040516108599190613e89565b60405180910390f35b34801561086e57600080fd5b5061088960048036038101906108849190613504565b612195565b60405161089691906134ac565b60405180910390f35b6108b960048036038101906108b49190613eff565b6122f0565b005b3480156108c757600080fd5b506108d061259f565b6040516108dd9190613608565b60405180910390f35b61090060048036038101906108fb91906137cd565b6125c3565b005b34801561090e57600080fd5b5061092960048036038101906109249190613f5f565b61265c565b60405161093691906133f8565b60405180910390f35b34801561094b57600080fd5b5061096660048036038101906109619190613b17565b6126f0565b005b60006301ffc9a760e01b827bffffffffffffffffffffffffffffffffffffffffffffffffffffffff191614806109c357506380ac58cd60e01b827bffffffffffffffffffffffffffffffffffffffffffffffffffffffff1916145b806109f35750635b5e139f60e01b827bffffffffffffffffffffffffffffffffffffffffffffffffffffffff1916145b9050919050565b606060028054610a0990613fce565b80601f0160208091040260200160405190810160405280929190818152602001828054610a3590613fce565b8015610a825780601f10610a5757610100808354040283529160200191610a82565b820191906000526020600020905b815481529060010190602001808311610a6557829003601f168201915b5050505050905090565b6000610a97826127e8565b610acd576040517fcf4700e400000000000000000000000000000000000000000000000000000000815260040160405180910390fd5b6006600083815260200190815260200160002060009054906101000a900473ffffffffffffffffffffffffffffffffffffffff169050919050565b6000610b1382611551565b90508073ffffffffffffffffffffffffffffffffffffffff16610b34612847565b73ffffffffffffffffffffffffffffffffffffffff1614610b9757610b6081610b5b612847565b61265c565b610b96576040517fcfb3b94200000000000000000000000000000000000000000000000000000000815260040160405180910390fd5b5b826006600084815260200190815260200160002060006101000a81548173ffffffffffffffffffffffffffffffffffffffff021916908373ffffffffffffffffffffffffffffffffffffffff160217905550818373ffffffffffffffffffffffffffffffffffffffff168273ffffffffffffffffffffffffffffffffffffffff167f8c5be1e5ebec7d5bd14f71427d1e84f3dd0314c0f7b2291e5b200ac8c7c3b92560405160405180910390a4505050565b600d5481565b610c5761284f565b73ffffffffffffffffffffffffffffffffffffffff16610c7561191d565b73ffffffffffffffffffffffffffffffffffffffff1614610ccb576040517f08c379a0000000000000000000000000000000000000000000000000000000008152600401610cc29061404c565b60405180910390fd5b80600b9080519060200190610ce1929190613252565b5050565b610ced61284f565b73ffffffffffffffffffffffffffffffffffffffff16610d0b61191d565b73ffffffffffffffffffffffffffffffffffffffff1614610d61576040517f08c379a0000000000000000000000000000000000000000000000000000000008152600401610d589061404c565b60405180910390fd5b80600f60006101000a81548160ff02191690831515021790555050565b6000610d88612857565b6001546000540303905090565b6000610da082612860565b90508373ffffffffffffffffffffffffffffffffffffffff168173ffffffffffffffffffffffffffffffffffffffff1614610e07576040517fa114810000000000000000000000000000000000000000000000000000000000815260040160405180910390fd5b600080610e138461292e565b91509150610e298187610e24612847565b612950565b610e7557610e3e86610e39612847565b61265c565b610e74576040517f59c896be00000000000000000000000000000000000000000000000000000000815260040160405180910390fd5b5b600073ffffffffffffffffffffffffffffffffffffffff168573ffffffffffffffffffffffffffffffffffffffff161415610edc576040517fea553b3400000000000000000000000000000000000000000000000000000000815260040160405180910390fd5b610ee98686866001612994565b8015610ef457600082555b600560008773ffffffffffffffffffffffffffffffffffffffff1673ffffffffffffffffffffffffffffffffffffffff168152602001908152602001600020600081546001900391905081905550600560008673ffffffffffffffffffffffffffffffffffffffff1673ffffffffffffffffffffffffffffffffffffffff1681526020019081526020016000206000815460010191905081905550610fc285610f9e88888761299a565b7c0200000000000000000000000000000000000000000000000000000000176129c2565b600460008681526020019081526020016000208190555060007c02000000000000000000000000000000000000000000000000000000008416141561104a576000600185019050600060046000838152602001908152602001600020541415611048576000548114611047578360046000838152602001908152602001600020819055505b5b505b838573ffffffffffffffffffffffffffffffffffffffff168773ffffffffffffffffffffffffffffffffffffffff167fddf252ad1be2c89b69c2b068fc378daa952ba7f163c4a11628f55a4df523b3ef60405160405180910390a46110b286868660016129ed565b505050505050565b60105481565b6110c861284f565b73ffffffffffffffffffffffffffffffffffffffff166110e661191d565b73ffffffffffffffffffffffffffffffffffffffff161461113c576040517f08c379a00000000000000000000000000000000000000000000000000000000081526004016111339061404c565b60405180910390fd5b60026009541415611182576040517f08c379a0000000000000000000000000000000000000000000000000000000008152600401611179906140b8565b60405180910390fd5b6002600981905550600061119461191d565b73ffffffffffffffffffffffffffffffffffffffff16476040516111b790614109565b60006040518083038185875af1925050503d80600081146111f4576040519150601f19603f3d011682016040523d82523d6000602084013e6111f9565b606091505b505090508061120757600080fd5b506001600981905550565b61122d838383604051806020016040528060008152506120b8565b505050565b61123a61284f565b73ffffffffffffffffffffffffffffffffffffffff1661125861191d565b73ffffffffffffffffffffffffffffffffffffffff16146112ae576040517f08c379a00000000000000000000000000000000000000000000000000000000081526004016112a59061404c565b60405180910390fd5b80600d8190555050565b6112c061284f565b73ffffffffffffffffffffffffffffffffffffffff166112de61191d565b73ffffffffffffffffffffffffffffffffffffffff1614611334576040517f08c379a000000000000000000000000000000000000000000000000000000000815260040161132b9061404c565b60405180910390fd5b80600c908051906020019061134a929190613252565b5050565b600f60029054906101000a900460ff1681565b600b805461136e90613fce565b80601f016020809104026020016040519081016040528092919081815260200182805461139a90613fce565b80156113e75780601f106113bc576101008083540402835291602001916113e7565b820191906000526020600020905b8154815290600101906020018083116113ca57829003601f168201915b505050505081565b606060008251905060008167ffffffffffffffff8111156114135761141261362d565b5b60405190808252806020026020018201604052801561144c57816020015b6114396132d8565b8152602001906001900390816114315790505b50905060005b8281146114a55761147c85828151811061146f5761146e61411e565b5b602002602001015161212b565b82828151811061148f5761148e61411e565b5b6020026020010181905250806001019050611452565b508092505050919050565b600f60009054906101000a900460ff1681565b600a80546114d090613fce565b80601f01602080910402602001604051908101604052809291908181526020018280546114fc90613fce565b80156115495780601f1061151e57610100808354040283529160200191611549565b820191906000526020600020905b81548152906001019060200180831161152c57829003601f168201915b505050505081565b600061155c82612860565b9050919050565b600f60019054906101000a900460ff1681565b60008073ffffffffffffffffffffffffffffffffffffffff168273ffffffffffffffffffffffffffffffffffffffff1614156115de576040517f8f4eb60400000000000000000000000000000000000000000000000000000000815260040160405180910390fd5b67ffffffffffffffff600560008473ffffffffffffffffffffffffffffffffffffffff1673ffffffffffffffffffffffffffffffffffffffff16815260200190815260200160002054169050919050565b61163761284f565b73ffffffffffffffffffffffffffffffffffffffff1661165561191d565b73ffffffffffffffffffffffffffffffffffffffff16146116ab576040517f08c379a00000000000000000000000000000000000000000000000000000000081526004016116a29061404c565b60405180910390fd5b6116b560006129f3565b565b6116bf61284f565b73ffffffffffffffffffffffffffffffffffffffff166116dd61191d565b73ffffffffffffffffffffffffffffffffffffffff1614611733576040517f08c379a000000000000000000000000000000000000000000000000000000000815260040161172a9061404c565b60405180910390fd5b8060108190555050565b61174561284f565b73ffffffffffffffffffffffffffffffffffffffff1661176361191d565b73ffffffffffffffffffffffffffffffffffffffff16146117b9576040517f08c379a00000000000000000000000000000000000000000000000000000000081526004016117b09061404c565b60405180910390fd5b80600a90805190602001906117cf929190613252565b5050565b606060008060006117e385611576565b905060008167ffffffffffffffff8111156118015761180061362d565b5b60405190808252806020026020018201604052801561182f5781602001602082028036833780820191505090505b50905061183a6132d8565b6000611844612857565b90505b83861461190f5761185781612ab9565b915081604001511561186857611904565b600073ffffffffffffffffffffffffffffffffffffffff16826000015173ffffffffffffffffffffffffffffffffffffffff16146118a857816000015194505b8773ffffffffffffffffffffffffffffffffffffffff168573ffffffffffffffffffffffffffffffffffffffff16141561190357808387806001019850815181106118f6576118f561411e565b5b6020026020010181815250505b5b806001019050611847565b508195505050505050919050565b6000600860009054906101000a900473ffffffffffffffffffffffffffffffffffffffff16905090565b600e5481565b60606003805461195c90613fce565b80601f016020809104026020016040519081016040528092919081815260200182805461198890613fce565b80156119d55780601f106119aa576101008083540402835291602001916119d5565b820191906000526020600020905b8154815290600101906020018083116119b857829003601f168201915b5050505050905090565b6060818310611a1a576040517f32c1995a00000000000000000000000000000000000000000000000000000000815260040160405180910390fd5b600080611a25612ae4565b9050611a2f612857565b851015611a4157611a3e612857565b94505b80841115611a4d578093505b6000611a5887611576565b905084861015611a7b576000868603905081811015611a75578091505b50611a80565b600090505b60008167ffffffffffffffff811115611a9c57611a9b61362d565b5b604051908082528060200260200182016040528015611aca5781602001602082028036833780820191505090505b5090506000821415611ae25780945050505050611bec565b6000611aed8861212b565b905060008160400151611b0257816000015190505b60008990505b888114158015611b185750848714155b15611bde57611b2681612ab9565b9250826040015115611b3757611bd3565b600073ffffffffffffffffffffffffffffffffffffffff16836000015173ffffffffffffffffffffffffffffffffffffffff1614611b7757826000015191505b8a73ffffffffffffffffffffffffffffffffffffffff168273ffffffffffffffffffffffffffffffffffffffff161415611bd25780848880600101995081518110611bc557611bc461411e565b5b6020026020010181815250505b5b806001019050611b08565b508583528296505050505050505b9392505050565b600f60009054906101000a900460ff1615611c3a576040517f018a6b1300000000000000000000000000000000000000000000000000000000815260040160405180910390fd5b806000811480611c4b5750600e5481115b15611c82576040517f4a9e3a0000000000000000000000000000000000000000000000000000000000815260040160405180910390fd5b7f000000000000000000000000000000000000000000000000000000000000000081611cac610d7e565b611cb6919061417c565b1115611cee576040517f4285bcd300000000000000000000000000000000000000000000000000000000815260040160405180910390fd5b8180600d54611cfd91906141d2565b341015611d36576040517f772ddbcd00000000000000000000000000000000000000000000000000000000815260040160405180910390fd5b600f60019054906101000a900460ff1615611d7d576040517f6d9bbc5f00000000000000000000000000000000000000000000000000000000815260040160405180910390fd5b611d8e611d8861284f565b84612aed565b505050565b611d9b612847565b73ffffffffffffffffffffffffffffffffffffffff168273ffffffffffffffffffffffffffffffffffffffff161415611e00576040517fb06307db00000000000000000000000000000000000000000000000000000000815260040160405180910390fd5b8060076000611e0d612847565b73ffffffffffffffffffffffffffffffffffffffff1673ffffffffffffffffffffffffffffffffffffffff16815260200190815260200160002060008473ffffffffffffffffffffffffffffffffffffffff1673ffffffffffffffffffffffffffffffffffffffff16815260200190815260200160002060006101000a81548160ff0219169083151502179055508173ffffffffffffffffffffffffffffffffffffffff16611eba612847565b73ffffffffffffffffffffffffffffffffffffffff167f17307eab39ab6107e8899845ad3d59bd9653f200f220920489ca2b5937696c3183604051611eff91906133f8565b60405180910390a35050565b600c8054611f1890613fce565b80601f0160208091040260200160405190810160405280929190818152602001828054611f4490613fce565b8015611f915780601f10611f6657610100808354040283529160200191611f91565b820191906000526020600020905b815481529060010190602001808311611f7457829003601f168201915b505050505081565b611fa161284f565b73ffffffffffffffffffffffffffffffffffffffff16611fbf61191d565b73ffffffffffffffffffffffffffffffffffffffff1614612015576040517f08c379a000000000000000000000000000000000000000000000000000000000815260040161200c9061404c565b60405180910390fd5b80600e8190555050565b61202761284f565b73ffffffffffffffffffffffffffffffffffffffff1661204561191d565b73ffffffffffffffffffffffffffffffffffffffff161461209b576040517f08c379a00000000000000000000000000000000000000000000000000000000081526004016120929061404c565b60405180910390fd5b80600f60016101000a81548160ff02191690831515021790555050565b6120c3848484610d95565b60008373ffffffffffffffffffffffffffffffffffffffff163b14612125576120ee84848484612b0b565b612124576040517fd1a57ed600000000000000000000000000000000000000000000000000000000815260040160405180910390fd5b5b50505050565b6121336132d8565b61213b6132d8565b612143612857565b8310806121575750612153612ae4565b8310155b156121655780915050612190565b61216e83612ab9565b90508060400151156121835780915050612190565b61218c83612c5c565b9150505b919050565b60606121a0826127e8565b6121e157816040517fe49761ce0000000000000000000000000000000000000000000000000000000081526004016121d89190613608565b60405180910390fd5b60001515600f60029054906101000a900460ff161515141561228f57600c805461220a90613fce565b80601f016020809104026020016040519081016040528092919081815260200182805461223690613fce565b80156122835780601f1061225857610100808354040283529160200191612283565b820191906000526020600020905b81548152906001019060200180831161226657829003601f168201915b505050505090506122eb565b6000612299612c7c565b905060008151116122b957604051806020016040528060008152506122e7565b806122c384612d0e565b600b6040516020016122d7939291906142fc565b6040516020818303038152906040525b9150505b919050565b600f60009054906101000a900460ff1615612337576040517f018a6b1300000000000000000000000000000000000000000000000000000000815260040160405180910390fd5b8260008114806123485750600e5481115b1561237f576040517f4a9e3a0000000000000000000000000000000000000000000000000000000000815260040160405180910390fd5b7f0000000000000000000000000000000000000000000000000000000000000000816123a9610d7e565b6123b3919061417c565b11156123eb576040517f4285bcd300000000000000000000000000000000000000000000000000000000815260040160405180910390fd5b8380600d546123fa91906141d2565b341015612433576040517f772ddbcd00000000000000000000000000000000000000000000000000000000815260040160405180910390fd5b600f60019054906101000a900460ff16612479576040517f1dae151300000000000000000000000000000000000000000000000000000000815260040160405180910390fd5b600061248361284f565b9050600061249082611576565b146124d257806040517f15ed6e510000000000000000000000000000000000000000000000000000000081526004016124c99190613572565b60405180910390fd5b6000816040516020016124e59190614375565b60405160208183030381529060405280519060200120905061254b868680806020026020016040519081016040528093929190818152602001838360200280828437600081840152601f19601f8201169050808301925050505050505060105483612e6f565b61258c57816040517feb6b987b0000000000000000000000000000000000000000000000000000000081526004016125839190613572565b60405180910390fd5b6125968288612aed565b50505050505050565b7f000000000000000000000000000000000000000000000000000000000000000081565b6125cb61284f565b73ffffffffffffffffffffffffffffffffffffffff166125e961191d565b73ffffffffffffffffffffffffffffffffffffffff161461263f576040517f08c379a00000000000000000000000000000000000000000000000000000000081526004016126369061404c565b60405180910390fd5b80600f60026101000a81548160ff02191690831515021790555050565b6000600760008473ffffffffffffffffffffffffffffffffffffffff1673ffffffffffffffffffffffffffffffffffffffff16815260200190815260200160002060008373ffffffffffffffffffffffffffffffffffffffff1673ffffffffffffffffffffffffffffffffffffffff16815260200190815260200160002060009054906101000a900460ff16905092915050565b6126f861284f565b73ffffffffffffffffffffffffffffffffffffffff1661271661191d565b73ffffffffffffffffffffffffffffffffffffffff161461276c576040517f08c379a00000000000000000000000000000000000000000000000000000000081526004016127639061404c565b60405180910390fd5b600073ffffffffffffffffffffffffffffffffffffffff168173ffffffffffffffffffffffffffffffffffffffff1614156127dc576040517f08c379a00000000000000000000000000000000000000000000000000000000081526004016127d390614402565b60405180910390fd5b6127e5816129f3565b50565b6000816127f3612857565b11158015612802575060005482105b8015612840575060007c0100000000000000000000000000000000000000000000000000000000600460008581526020019081526020016000205416145b9050919050565b600033905090565b600033905090565b60006001905090565b6000808290508061286f612857565b116128f7576000548110156128f65760006004600083815260200190815260200160002054905060007c0100000000000000000000000000000000000000000000000000000000821614156128f4575b60008114156128ea5760046000836001900393508381526020019081526020016000205490506128bf565b8092505050612929565b505b5b6040517fdf2d9b4200000000000000000000000000000000000000000000000000000000815260040160405180910390fd5b919050565b6000806000600690508360005280602052604060002092508254915050915091565b600073ffffffffffffffffffffffffffffffffffffffff8316925073ffffffffffffffffffffffffffffffffffffffff821691508382148383141790509392505050565b50505050565b60008060e883901c905060e86129b1868684612e86565b62ffffff16901b9150509392505050565b600073ffffffffffffffffffffffffffffffffffffffff83169250814260a01b178317905092915050565b50505050565b6000600860009054906101000a900473ffffffffffffffffffffffffffffffffffffffff16905081600860006101000a81548173ffffffffffffffffffffffffffffffffffffffff021916908373ffffffffffffffffffffffffffffffffffffffff1602179055508173ffffffffffffffffffffffffffffffffffffffff168173ffffffffffffffffffffffffffffffffffffffff167f8be0079c531659141344cd1fd0a4f28419497f9722a3daafe3b4186f6b6457e060405160405180910390a35050565b612ac16132d8565b612add6004600084815260200190815260200160002054612e8f565b9050919050565b60008054905090565b612b07828260405180602001604052806000815250612f45565b5050565b60008373ffffffffffffffffffffffffffffffffffffffff1663150b7a02612b31612847565b8786866040518563ffffffff1660e01b8152600401612b539493929190614477565b6020604051808303816000875af1925050508015612b8f57506040513d601f19601f82011682018060405250810190612b8c91906144d8565b60015b612c09573d8060008114612bbf576040519150601f19603f3d011682016040523d82523d6000602084013e612bc4565b606091505b50600081511415612c01576040517fd1a57ed600000000000000000000000000000000000000000000000000000000815260040160405180910390fd5b805181602001fd5b63150b7a0260e01b7bffffffffffffffffffffffffffffffffffffffffffffffffffffffff1916817bffffffffffffffffffffffffffffffffffffffffffffffffffffffff191614915050949350505050565b612c646132d8565b612c75612c7083612860565b612e8f565b9050919050565b6060600a8054612c8b90613fce565b80601f0160208091040260200160405190810160405280929190818152602001828054612cb790613fce565b8015612d045780601f10612cd957610100808354040283529160200191612d04565b820191906000526020600020905b815481529060010190602001808311612ce757829003601f168201915b5050505050905090565b60606000821415612d56576040518060400160405280600181526020017f30000000000000000000000000000000000000000000000000000000000000008152509050612e6a565b600082905060005b60008214612d88578080612d7190614505565b915050600a82612d81919061457d565b9150612d5e565b60008167ffffffffffffffff811115612da457612da361362d565b5b6040519080825280601f01601f191660200182016040528015612dd65781602001600182028036833780820191505090505b5090505b60008514612e6357600182612def91906145ae565b9150600a85612dfe91906145e2565b6030612e0a919061417c565b60f81b818381518110612e2057612e1f61411e565b5b60200101907effffffffffffffffffffffffffffffffffffffffffffffffffffffffffffff1916908160001a905350600a85612e5c919061457d565b9450612dda565b8093505050505b919050565b600082612e7c8584612fe2565b1490509392505050565b60009392505050565b612e976132d8565b81816000019073ffffffffffffffffffffffffffffffffffffffff16908173ffffffffffffffffffffffffffffffffffffffff168152505060a082901c816020019067ffffffffffffffff16908167ffffffffffffffff168152505060007c01000000000000000000000000000000000000000000000000000000008316141581604001901515908115158152505060e882901c816060019062ffffff16908162ffffff1681525050919050565b612f4f8383613057565b60008373ffffffffffffffffffffffffffffffffffffffff163b14612fdd57600080549050600083820390505b612f8f6000868380600101945086612b0b565b612fc5576040517fd1a57ed600000000000000000000000000000000000000000000000000000000815260040160405180910390fd5b818110612f7c578160005414612fda57600080fd5b50505b505050565b60008082905060005b845181101561304c5760008582815181106130095761300861411e565b5b6020026020010151905080831161302b57613024838261322b565b9250613038565b613035818461322b565b92505b50808061304490614505565b915050612feb565b508091505092915050565b600080549050600073ffffffffffffffffffffffffffffffffffffffff168373ffffffffffffffffffffffffffffffffffffffff1614156130c4576040517f2e07630000000000000000000000000000000000000000000000000000000000815260040160405180910390fd5b60008214156130ff576040517fb562e8dd00000000000000000000000000000000000000000000000000000000815260040160405180910390fd5b61310c6000848385612994565b600160406001901b178202600560008573ffffffffffffffffffffffffffffffffffffffff1673ffffffffffffffffffffffffffffffffffffffff1681526020019081526020016000206000828254019250508190555061318383613174600086600061299a565b61317d85613242565b176129c2565b60046000838152602001908152602001600020819055506000819050600083830190505b818060010192508573ffffffffffffffffffffffffffffffffffffffff16600073ffffffffffffffffffffffffffffffffffffffff167fddf252ad1be2c89b69c2b068fc378daa952ba7f163c4a11628f55a4df523b3ef60405160405180910390a48082106131a75780600081905550505061322660008483856129ed565b505050565b600082600052816020526040600020905092915050565b60006001821460e11b9050919050565b82805461325e90613fce565b90600052602060002090601f01602090048101928261328057600085556132c7565b82601f1061329957805160ff19168380011785556132c7565b828001600101855582156132c7579182015b828111156132c65782518255916020019190600101906132ab565b5b5090506132d49190613327565b5090565b6040518060800160405280600073ffffffffffffffffffffffffffffffffffffffff168152602001600067ffffffffffffffff168152602001600015158152602001600062ffffff1681525090565b5b80821115613340576000816000905550600101613328565b5090565b6000604051905090565b600080fd5b600080fd5b60007fffffffff0000000000000000000000000000000000000000000000000000000082169050919050565b61338d81613358565b811461339857600080fd5b50565b6000813590506133aa81613384565b92915050565b6000602082840312156133c6576133c561334e565b5b60006133d48482850161339b565b91505092915050565b60008115159050919050565b6133f2816133dd565b82525050565b600060208201905061340d60008301846133e9565b92915050565b600081519050919050565b600082825260208201905092915050565b60005b8381101561344d578082015181840152602081019050613432565b8381111561345c576000848401525b50505050565b6000601f19601f8301169050919050565b600061347e82613413565b613488818561341e565b935061349881856020860161342f565b6134a181613462565b840191505092915050565b600060208201905081810360008301526134c68184613473565b905092915050565b6000819050919050565b6134e1816134ce565b81146134ec57600080fd5b50565b6000813590506134fe816134d8565b92915050565b60006020828403121561351a5761351961334e565b5b6000613528848285016134ef565b91505092915050565b600073ffffffffffffffffffffffffffffffffffffffff82169050919050565b600061355c82613531565b9050919050565b61356c81613551565b82525050565b60006020820190506135876000830184613563565b92915050565b61359681613551565b81146135a157600080fd5b50565b6000813590506135b38161358d565b92915050565b600080604083850312156135d0576135cf61334e565b5b60006135de858286016135a4565b92505060206135ef858286016134ef565b9150509250929050565b613602816134ce565b82525050565b600060208201905061361d60008301846135f9565b92915050565b600080fd5b600080fd5b7f4e487b7100000000000000000000000000000000000000000000000000000000600052604160045260246000fd5b61366582613462565b810181811067ffffffffffffffff821117156136845761368361362d565b5b80604052505050565b6000613697613344565b90506136a3828261365c565b919050565b600067ffffffffffffffff8211156136c3576136c261362d565b5b6136cc82613462565b9050602081019050919050565b82818337600083830152505050565b60006136fb6136f6846136a8565b61368d565b90508281526020810184848401111561371757613716613628565b5b6137228482856136d9565b509392505050565b600082601f83011261373f5761373e613623565b5b813561374f8482602086016136e8565b91505092915050565b60006020828403121561376e5761376d61334e565b5b600082013567ffffffffffffffff81111561378c5761378b613353565b5b6137988482850161372a565b91505092915050565b6137aa816133dd565b81146137b557600080fd5b50565b6000813590506137c7816137a1565b92915050565b6000602082840312156137e3576137e261334e565b5b60006137f1848285016137b8565b91505092915050565b6000806000606084860312156138135761381261334e565b5b6000613821868287016135a4565b9350506020613832868287016135a4565b9250506040613843868287016134ef565b9150509250925092565b6000819050919050565b6138608161384d565b82525050565b600060208201905061387b6000830184613857565b92915050565b600067ffffffffffffffff82111561389c5761389b61362d565b5b602082029050602081019050919050565b600080fd5b60006138c56138c084613881565b61368d565b905080838252602082019050602084028301858111156138e8576138e76138ad565b5b835b8181101561391157806138fd88826134ef565b8452602084019350506020810190506138ea565b5050509392505050565b600082601f8301126139305761392f613623565b5b81356139408482602086016138b2565b91505092915050565b60006020828403121561395f5761395e61334e565b5b600082013567ffffffffffffffff81111561397d5761397c613353565b5b6139898482850161391b565b91505092915050565b600081519050919050565b600082825260208201905092915050565b6000819050602082019050919050565b6139c781613551565b82525050565b600067ffffffffffffffff82169050919050565b6139ea816139cd565b82525050565b6139f9816133dd565b82525050565b600062ffffff82169050919050565b613a17816139ff565b82525050565b608082016000820151613a3360008501826139be565b506020820151613a4660208501826139e1565b506040820151613a5960408501826139f0565b506060820151613a6c6060850182613a0e565b50505050565b6000613a7e8383613a1d565b60808301905092915050565b6000602082019050919050565b6000613aa282613992565b613aac818561399d565b9350613ab7836139ae565b8060005b83811015613ae8578151613acf8882613a72565b9750613ada83613a8a565b925050600181019050613abb565b5085935050505092915050565b60006020820190508181036000830152613b0f8184613a97565b905092915050565b600060208284031215613b2d57613b2c61334e565b5b6000613b3b848285016135a4565b91505092915050565b613b4d8161384d565b8114613b5857600080fd5b50565b600081359050613b6a81613b44565b92915050565b600060208284031215613b8657613b8561334e565b5b6000613b9484828501613b5b565b91505092915050565b600081519050919050565b600082825260208201905092915050565b6000819050602082019050919050565b613bd2816134ce565b82525050565b6000613be48383613bc9565b60208301905092915050565b6000602082019050919050565b6000613c0882613b9d565b613c128185613ba8565b9350613c1d83613bb9565b8060005b83811015613c4e578151613c358882613bd8565b9750613c4083613bf0565b925050600181019050613c21565b5085935050505092915050565b60006020820190508181036000830152613c758184613bfd565b905092915050565b600080600060608486031215613c9657613c9561334e565b5b6000613ca4868287016135a4565b9350506020613cb5868287016134ef565b9250506040613cc6868287016134ef565b9150509250925092565b60008060408385031215613ce757613ce661334e565b5b6000613cf5858286016135a4565b9250506020613d06858286016137b8565b9150509250929050565b600067ffffffffffffffff821115613d2b57613d2a61362d565b5b613d3482613462565b9050602081019050919050565b6000613d54613d4f84613d10565b61368d565b905082815260208101848484011115613d7057613d6f613628565b5b613d7b8482856136d9565b509392505050565b600082601f830112613d9857613d97613623565b5b8135613da8848260208601613d41565b91505092915050565b60008060008060808587031215613dcb57613dca61334e565b5b6000613dd9878288016135a4565b9450506020613dea878288016135a4565b9350506040613dfb878288016134ef565b925050606085013567ffffffffffffffff811115613e1c57613e1b613353565b5b613e2887828801613d83565b91505092959194509250565b608082016000820151613e4a60008501826139be565b506020820151613e5d60208501826139e1565b506040820151613e7060408501826139f0565b506060820151613e836060850182613a0e565b50505050565b6000608082019050613e9e6000830184613e34565b92915050565b600080fd5b60008083601f840112613ebf57613ebe613623565b5b8235905067ffffffffffffffff811115613edc57613edb613ea4565b5b602083019150836020820283011115613ef857613ef76138ad565b5b9250929050565b600080600060408486031215613f1857613f1761334e565b5b6000613f26868287016134ef565b935050602084013567ffffffffffffffff811115613f4757613f46613353565b5b613f5386828701613ea9565b92509250509250925092565b60008060408385031215613f7657613f7561334e565b5b6000613f84858286016135a4565b9250506020613f95858286016135a4565b9150509250929050565b7f4e487b7100000000000000000000000000000000000000000000000000000000600052602260045260246000fd5b60006002820490506001821680613fe657607f821691505b60208210811415613ffa57613ff9613f9f565b5b50919050565b7f4f776e61626c653a2063616c6c6572206973206e6f7420746865206f776e6572600082015250565b600061403660208361341e565b915061404182614000565b602082019050919050565b6000602082019050818103600083015261406581614029565b9050919050565b7f5265656e7472616e637947756172643a207265656e7472616e742063616c6c00600082015250565b60006140a2601f8361341e565b91506140ad8261406c565b602082019050919050565b600060208201905081810360008301526140d181614095565b9050919050565b600081905092915050565b50565b60006140f36000836140d8565b91506140fe826140e3565b600082019050919050565b6000614114826140e6565b9150819050919050565b7f4e487b7100000000000000000000000000000000000000000000000000000000600052603260045260246000fd5b7f4e487b7100000000000000000000000000000000000000000000000000000000600052601160045260246000fd5b6000614187826134ce565b9150614192836134ce565b9250827fffffffffffffffffffffffffffffffffffffffffffffffffffffffffffffffff038211156141c7576141c661414d565b5b828201905092915050565b60006141dd826134ce565b91506141e8836134ce565b9250817fffffffffffffffffffffffffffffffffffffffffffffffffffffffffffffffff04831182151516156142215761422061414d565b5b828202905092915050565b600081905092915050565b600061424282613413565b61424c818561422c565b935061425c81856020860161342f565b80840191505092915050565b60008190508160005260206000209050919050565b6000815461428a81613fce565b614294818661422c565b945060018216600081146142af57600181146142c0576142f3565b60ff198316865281860193506142f3565b6142c985614268565b60005b838110156142eb578154818901526001820191506020810190506142cc565b838801955050505b50505092915050565b60006143088286614237565b91506143148285614237565b9150614320828461427d565b9150819050949350505050565b60008160601b9050919050565b60006143458261432d565b9050919050565b60006143578261433a565b9050919050565b61436f61436a82613551565b61434c565b82525050565b6000614381828461435e565b60148201915081905092915050565b7f4f776e61626c653a206e6577206f776e657220697320746865207a65726f206160008201527f6464726573730000000000000000000000000000000000000000000000000000602082015250565b60006143ec60268361341e565b91506143f782614390565b604082019050919050565b6000602082019050818103600083015261441b816143df565b9050919050565b600081519050919050565b600082825260208201905092915050565b600061444982614422565b614453818561442d565b935061446381856020860161342f565b61446c81613462565b840191505092915050565b600060808201905061448c6000830187613563565b6144996020830186613563565b6144a660408301856135f9565b81810360608301526144b8818461443e565b905095945050505050565b6000815190506144d281613384565b92915050565b6000602082840312156144ee576144ed61334e565b5b60006144fc848285016144c3565b91505092915050565b6000614510826134ce565b91507fffffffffffffffffffffffffffffffffffffffffffffffffffffffffffffffff8214156145435761454261414d565b5b600182019050919050565b7f4e487b7100000000000000000000000000000000000000000000000000000000600052601260045260246000fd5b6000614588826134ce565b9150614593836134ce565b9250826145a3576145a261454e565b5b828204905092915050565b60006145b9826134ce565b91506145c4836134ce565b9250828210156145d7576145d661414d565b5b828203905092915050565b60006145ed826134ce565b91506145f8836134ce565b9250826146085761460761454e565b5b82820690509291505056fea26469706673582212202dbd204e3d56285631583deed36b677080ec3fc375bd08876efa12fdd229925c64736f6c634300080a0033",
  "linkReferences": {},
  "deployedLinkReferences": {}
}