{
  "_format": "hh-sol-artifact-1",
  "contractName": "NFTNormal",
  "sourceName": "contracts/NftContract.sol",
  "abi": [
    {
      "inputs": [
        {
          "internalType": "string",
          "name": "_name",
          "type": "string"
        },
        {
          "internalType": "string",
          "name": "_symbol",
          "type": "string"
        },
        {
          "internalType": "uint256",
          "name": "_cost",
          "type": "uint256"
        },
        {
          "internalType": "uint256",
          "name": "_maxSupply",
          "type": "uint256"
        },
        {
          "internalType": "uint256",
          "name": "_maxMintAmountPerTx",
          "type": "uint256"
        },
        {
          "internalType": "string",
          "name": "_hiddenMetadataUri",
          "type": "string"
        }
      ],
      "stateMutability": "nonpayable",
      "type": "constructor"
    },
    {
      "inputs": [],
      "name": "NFT__ContractIsPaused",
      "type": "error"
    },
    {
      "inputs": [],
      "name": "NFT__ExceededMaxMintAmountPerTx",
      "type": "error"
    },
    {
      "inputs": [],
      "name": "NFT__ExceededMaxNftPerAddress",
      "type": "error"
    },
    {
      "inputs": [],
      "name": "NFT__InsufficientFunds",
      "type": "error"
    },
    {
      "inputs": [],
      "name": "NFT__InvalidMintAmount",
      "type": "error"
    },
    {
      "inputs": [],
      "name": "NFT__MaxSupplyExceeded",
      "type": "error"
    },
    {
      "inputs": [
        {
          "internalType": "address",
          "name": "user",
          "type": "address"
        }
      ],
      "name": "NFT__NotWhitelisted",
      "type": "error"
    },
    {
      "inputs": [
        {
          "internalType": "uint256",
          "name": "tokenId",
          "type": "uint256"
        }
      ],
      "name": "NFT__QueryForNonExistentToken",
      "type": "error"
    },
    {
      "anonymous": false,
      "inputs": [
        {
          "indexed": true,
          "internalType": "address",
          "name": "owner",
          "type": "address"
        },
        {
          "indexed": true,
          "internalType": "address",
          "name": "approved",
          "type": "address"
        },
        {
          "indexed": true,
          "internalType": "uint256",
          "name": "tokenId",
          "type": "uint256"
        }
      ],
      "name": "Approval",
      "type": "event"
    },
    {
      "anonymous": false,
      "inputs": [
        {
          "indexed": true,
          "internalType": "address",
          "name": "owner",
          "type": "address"
        },
        {
          "indexed": true,
          "internalType": "address",
          "name": "operator",
          "type": "address"
        },
        {
          "indexed": false,
          "internalType": "bool",
          "name": "approved",
          "type": "bool"
        }
      ],
      "name": "ApprovalForAll",
      "type": "event"
    },
    {
      "anonymous": false,
      "inputs": [
        {
          "indexed": true,
          "internalType": "address",
          "name": "previousOwner",
          "type": "address"
        },
        {
          "indexed": true,
          "internalType": "address",
          "name": "newOwner",
          "type": "address"
        }
      ],
      "name": "OwnershipTransferred",
      "type": "event"
    },
    {
      "anonymous": false,
      "inputs": [
        {
          "indexed": true,
          "internalType": "address",
          "name": "from",
          "type": "address"
        },
        {
          "indexed": true,
          "internalType": "address",
          "name": "to",
          "type": "address"
        },
        {
          "indexed": true,
          "internalType": "uint256",
          "name": "tokenId",
          "type": "uint256"
        }
      ],
      "name": "Transfer",
      "type": "event"
    },
    {
      "inputs": [
        {
          "internalType": "address",
          "name": "",
          "type": "address"
        }
      ],
      "name": "addressMintedBalance",
      "outputs": [
        {
          "internalType": "uint256",
          "name": "",
          "type": "uint256"
        }
      ],
      "stateMutability": "view",
      "type": "function"
    },
    {
      "inputs": [
        {
          "internalType": "address",
          "name": "to",
          "type": "address"
        },
        {
          "internalType": "uint256",
          "name": "tokenId",
          "type": "uint256"
        }
      ],
      "name": "approve",
      "outputs": [],
      "stateMutability": "nonpayable",
      "type": "function"
    },
    {
      "inputs": [
        {
          "internalType": "address",
          "name": "owner",
          "type": "address"
        }
      ],
      "name": "balanceOf",
      "outputs": [
        {
          "internalType": "uint256",
          "name": "",
          "type": "uint256"
        }
      ],
      "stateMutability": "view",
      "type": "function"
    },
    {
      "inputs": [],
      "name": "baseExtension",
      "outputs": [
        {
          "internalType": "string",
          "name": "",
          "type": "string"
        }
      ],
      "stateMutability": "view",
      "type": "function"
    },
    {
      "inputs": [],
      "name": "baseURI",
      "outputs": [
        {
          "internalType": "string",
          "name": "",
          "type": "string"
        }
      ],
      "stateMutability": "view",
      "type": "function"
    },
    {
      "inputs": [],
      "name": "cost",
      "outputs": [
        {
          "internalType": "uint256",
          "name": "",
          "type": "uint256"
        }
      ],
      "stateMutability": "view",
      "type": "function"
    },
    {
      "inputs": [
        {
          "internalType": "uint256",
          "name": "tokenId",
          "type": "uint256"
        }
      ],
      "name": "getApproved",
      "outputs": [
        {
          "internalType": "address",
          "name": "",
          "type": "address"
        }
      ],
      "stateMutability": "view",
      "type": "function"
    },
    {
      "inputs": [],
      "name": "hiddenMetadataUri",
      "outputs": [
        {
          "internalType": "string",
          "name": "",
          "type": "string"
        }
      ],
      "stateMutability": "view",
      "type": "function"
    },
    {
      "inputs": [
        {
          "internalType": "address",
          "name": "owner",
          "type": "address"
        },
        {
          "internalType": "address",
          "name": "operator",
          "type": "address"
        }
      ],
      "name": "isApprovedForAll",
      "outputs": [
        {
          "internalType": "bool",
          "name": "",
          "type": "bool"
        }
      ],
      "stateMutability": "view",
      "type": "function"
    },
    {
      "inputs": [
        {
          "internalType": "address",
          "name": "_user",
          "type": "address"
        }
      ],
      "name": "isWhitelisted",
      "outputs": [
        {
          "internalType": "bool",
          "name": "",
          "type": "bool"
        }
      ],
      "stateMutability": "view",
      "type": "function"
    },
    {
      "inputs": [],
      "name": "maxMintAmountPerTx",
      "outputs": [
        {
          "internalType": "uint256",
          "name": "",
          "type": "uint256"
        }
      ],
      "stateMutability": "view",
      "type": "function"
    },
    {
      "inputs": [],
      "name": "maxSupply",
      "outputs": [
        {
          "internalType": "uint256",
          "name": "",
          "type": "uint256"
        }
      ],
      "stateMutability": "view",
      "type": "function"
    },
    {
      "inputs": [
        {
          "internalType": "uint256",
          "name": "_mintAmount",
          "type": "uint256"
        }
      ],
      "name": "mint",
      "outputs": [],
      "stateMutability": "payable",
      "type": "function"
    },
    {
      "inputs": [],
      "name": "name",
      "outputs": [
        {
          "internalType": "string",
          "name": "",
          "type": "string"
        }
      ],
      "stateMutability": "view",
      "type": "function"
    },
    {
      "inputs": [],
      "name": "nftPerAddressLimit",
      "outputs": [
        {
          "internalType": "uint256",
          "name": "",
          "type": "uint256"
        }
      ],
      "stateMutability": "view",
      "type": "function"
    },
    {
      "inputs": [],
      "name": "owner",
      "outputs": [
        {
          "internalType": "address",
          "name": "",
          "type": "address"
        }
      ],
      "stateMutability": "view",
      "type": "function"
    },
    {
      "inputs": [
        {
          "internalType": "uint256",
          "name": "tokenId",
          "type": "uint256"
        }
      ],
      "name": "ownerOf",
      "outputs": [
        {
          "internalType": "address",
          "name": "",
          "type": "address"
        }
      ],
      "stateMutability": "view",
      "type": "function"
    },
    {
      "inputs": [
        {
          "internalType": "bool",
          "name": "_state",
          "type": "bool"
        }
      ],
      "name": "pause",
      "outputs": [],
      "stateMutability": "payable",
      "type": "function"
    },
    {
      "inputs": [],
      "name": "paused",
      "outputs": [
        {
          "internalType": "bool",
          "name": "",
          "type": "bool"
        }
      ],
      "stateMutability": "view",
      "type": "function"
    },
    {
      "inputs": [],
      "name": "renounceOwnership",
      "outputs": [],
      "stateMutability": "nonpayable",
      "type": "function"
    },
    {
      "inputs": [
        {
          "internalType": "string",
          "name": "_newBaseURI",
          "type": "string"
        }
      ],
      "name": "reveal",
      "outputs": [],
      "stateMutability": "payable",
      "type": "function"
    },
    {
      "inputs": [],
      "name": "revealed",
      "outputs": [
        {
          "internalType": "bool",
          "name": "",
          "type": "bool"
        }
      ],
      "stateMutability": "view",
      "type": "function"
    },
    {
      "inputs": [
        {
          "internalType": "address",
          "name": "from",
          "type": "address"
        },
        {
          "internalType": "address",
          "name": "to",
          "type": "address"
        },
        {
          "internalType": "uint256",
          "name": "tokenId",
          "type": "uint256"
        }
      ],
      "name": "safeTransferFrom",
      "outputs": [],
      "stateMutability": "nonpayable",
      "type": "function"
    },
    {
      "inputs": [
        {
          "internalType": "address",
          "name": "from",
          "type": "address"
        },
        {
          "internalType": "address",
          "name": "to",
          "type": "address"
        },
        {
          "internalType": "uint256",
          "name": "tokenId",
          "type": "uint256"
        },
        {
          "internalType": "bytes",
          "name": "_data",
          "type": "bytes"
        }
      ],
      "name": "safeTransferFrom",
      "outputs": [],
      "stateMutability": "nonpayable",
      "type": "function"
    },
    {
      "inputs": [
        {
          "internalType": "address",
          "name": "operator",
          "type": "address"
        },
        {
          "internalType": "bool",
          "name": "approved",
          "type": "bool"
        }
      ],
      "name": "setApprovalForAll",
      "outputs": [],
      "stateMutability": "nonpayable",
      "type": "function"
    },
    {
      "inputs": [
        {
          "internalType": "string",
          "name": "_newBaseExtension",
          "type": "string"
        }
      ],
      "name": "setBaseExtension",
      "outputs": [],
      "stateMutability": "payable",
      "type": "function"
    },
    {
      "inputs": [
        {
          "internalType": "string",
          "name": "_newBaseURI",
          "type": "string"
        }
      ],
      "name": "setBaseURI",
      "outputs": [],
      "stateMutability": "payable",
      "type": "function"
    },
    {
      "inputs": [
        {
          "internalType": "uint256",
          "name": "_newCost",
          "type": "uint256"
        }
      ],
      "name": "setCost",
      "outputs": [],
      "stateMutability": "payable",
      "type": "function"
    },
    {
      "inputs": [
        {
          "internalType": "string",
          "name": "_hiddenMetadataUri",
          "type": "string"
        }
      ],
      "name": "setHiddenMetadataUri",
      "outputs": [],
      "stateMutability": "payable",
      "type": "function"
    },
    {
      "inputs": [
        {
          "internalType": "uint256",
          "name": "_newmaxMintAmount",
          "type": "uint256"
        }
      ],
      "name": "setMaxMintAmountPerTx",
      "outputs": [],
      "stateMutability": "payable",
      "type": "function"
    },
    {
      "inputs": [
        {
          "internalType": "uint256",
          "name": "_limit",
          "type": "uint256"
        }
      ],
      "name": "setNftPerAddressLimit",
      "outputs": [],
      "stateMutability": "payable",
      "type": "function"
    },
    {
      "inputs": [
        {
          "internalType": "bool",
          "name": "_state",
          "type": "bool"
        }
      ],
      "name": "setWhitelistMintEnabled",
      "outputs": [],
      "stateMutability": "payable",
      "type": "function"
    },
    {
      "inputs": [
        {
          "internalType": "bytes4",
          "name": "interfaceId",
          "type": "bytes4"
        }
      ],
      "name": "supportsInterface",
      "outputs": [
        {
          "internalType": "bool",
          "name": "",
          "type": "bool"
        }
      ],
      "stateMutability": "view",
      "type": "function"
    },
    {
      "inputs": [],
      "name": "symbol",
      "outputs": [
        {
          "internalType": "string",
          "name": "",
          "type": "string"
        }
      ],
      "stateMutability": "view",
      "type": "function"
    },
    {
      "inputs": [
        {
          "internalType": "uint256",
          "name": "index",
          "type": "uint256"
        }
      ],
      "name": "tokenByIndex",
      "outputs": [
        {
          "internalType": "uint256",
          "name": "",
          "type": "uint256"
        }
      ],
      "stateMutability": "view",
      "type": "function"
    },
    {
      "inputs": [
        {
          "internalType": "address",
          "name": "owner",
          "type": "address"
        },
        {
          "internalType": "uint256",
          "name": "index",
          "type": "uint256"
        }
      ],
      "name": "tokenOfOwnerByIndex",
      "outputs": [
        {
          "internalType": "uint256",
          "name": "",
          "type": "uint256"
        }
      ],
      "stateMutability": "view",
      "type": "function"
    },
    {
      "inputs": [
        {
          "internalType": "uint256",
          "name": "tokenId",
          "type": "uint256"
        }
      ],
      "name": "tokenURI",
      "outputs": [
        {
          "internalType": "string",
          "name": "",
          "type": "string"
        }
      ],
      "stateMutability": "view",
      "type": "function"
    },
    {
      "inputs": [],
      "name": "totalSupply",
      "outputs": [
        {
          "internalType": "uint256",
          "name": "",
          "type": "uint256"
        }
      ],
      "stateMutability": "view",
      "type": "function"
    },
    {
      "inputs": [
        {
          "internalType": "address",
          "name": "from",
          "type": "address"
        },
        {
          "internalType": "address",
          "name": "to",
          "type": "address"
        },
        {
          "internalType": "uint256",
          "name": "tokenId",
          "type": "uint256"
        }
      ],
      "name": "transferFrom",
      "outputs": [],
      "stateMutability": "nonpayable",
      "type": "function"
    },
    {
      "inputs": [
        {
          "internalType": "address",
          "name": "newOwner",
          "type": "address"
        }
      ],
      "name": "transferOwnership",
      "outputs": [],
      "stateMutability": "nonpayable",
      "type": "function"
    },
    {
      "inputs": [
        {
          "internalType": "address",
          "name": "_owner",
          "type": "address"
        }
      ],
      "name": "walletOfOwner",
      "outputs": [
        {
          "internalType": "uint256[]",
          "name": "",
          "type": "uint256[]"
        }
      ],
      "stateMutability": "view",
      "type": "function"
    },
    {
      "inputs": [],
      "name": "whitelistMintEnabled",
      "outputs": [
        {
          "internalType": "bool",
          "name": "",
          "type": "bool"
        }
      ],
      "stateMutability": "view",
      "type": "function"
    },
    {
      "inputs": [
        {
          "internalType": "address[]",
          "name": "_users",
          "type": "address[]"
        }
      ],
      "name": "whitelistUsers",
      "outputs": [],
      "stateMutability": "payable",
      "type": "function"
    },
    {
      "inputs": [
        {
          "internalType": "uint256",
          "name": "",
          "type": "uint256"
        }
      ],
      "name": "whitelistedAddresses",
      "outputs": [
        {
          "internalType": "address",
          "name": "",
          "type": "address"
        }
      ],
      "stateMutability": "view",
      "type": "function"
    },
    {
      "inputs": [],
      "name": "withdraw",
      "outputs": [],
      "stateMutability": "payable",
      "type": "function"
    }
  ],
  "bytecode": "0x60a06040526040518060400160405280600581526020017f2e6a736f6e000000000000000000000000000000000000000000000000000000815250600c90805190602001906200005192919062000204565b5060036010556001601160006101000a81548160ff0219169083151502179055503480156200007f57600080fd5b5060405162005248380380620052488339818101604052810190620000a591906200048c565b85858160009080519060200190620000bf92919062000204565b508060019080519060200190620000d892919062000204565b505050620000fb620000ef6200013660201b60201c565b6200013e60201b60201c565b80600d90805190602001906200011392919062000204565b5083600e8190555081600f819055508260808181525050505050505050620005ea565b600033905090565b6000600a60009054906101000a900473ffffffffffffffffffffffffffffffffffffffff16905081600a60006101000a81548173ffffffffffffffffffffffffffffffffffffffff021916908373ffffffffffffffffffffffffffffffffffffffff1602179055508173ffffffffffffffffffffffffffffffffffffffff168173ffffffffffffffffffffffffffffffffffffffff167f8be0079c531659141344cd1fd0a4f28419497f9722a3daafe3b4186f6b6457e060405160405180910390a35050565b8280546200021290620005b4565b90600052602060002090601f01602090048101928262000236576000855562000282565b82601f106200025157805160ff191683800117855562000282565b8280016001018555821562000282579182015b828111156200028157825182559160200191906001019062000264565b5b50905062000291919062000295565b5090565b5b80821115620002b057600081600090555060010162000296565b5090565b6000604051905090565b600080fd5b600080fd5b600080fd5b600080fd5b6000601f19601f8301169050919050565b7f4e487b7100000000000000000000000000000000000000000000000000000000600052604160045260246000fd5b6200031d82620002d2565b810181811067ffffffffffffffff821117156200033f576200033e620002e3565b5b80604052505050565b600062000354620002b4565b905062000362828262000312565b919050565b600067ffffffffffffffff821115620003855762000384620002e3565b5b6200039082620002d2565b9050602081019050919050565b60005b83811015620003bd578082015181840152602081019050620003a0565b83811115620003cd576000848401525b50505050565b6000620003ea620003e48462000367565b62000348565b905082815260208101848484011115620004095762000408620002cd565b5b620004168482856200039d565b509392505050565b600082601f830112620004365762000435620002c8565b5b815162000448848260208601620003d3565b91505092915050565b6000819050919050565b620004668162000451565b81146200047257600080fd5b50565b60008151905062000486816200045b565b92915050565b60008060008060008060c08789031215620004ac57620004ab620002be565b5b600087015167ffffffffffffffff811115620004cd57620004cc620002c3565b5b620004db89828a016200041e565b965050602087015167ffffffffffffffff811115620004ff57620004fe620002c3565b5b6200050d89828a016200041e565b95505060406200052089828a0162000475565b94505060606200053389828a0162000475565b93505060806200054689828a0162000475565b92505060a087015167ffffffffffffffff8111156200056a5762000569620002c3565b5b6200057889828a016200041e565b9150509295509295509295565b7f4e487b7100000000000000000000000000000000000000000000000000000000600052602260045260246000fd5b60006002820490506001821680620005cd57607f821691505b60208210811415620005e457620005e362000585565b5b50919050565b608051614c3b6200060d600039600081816117e30152611f040152614c3b6000f3fe6080604052600436106102725760003560e01c80636c0360eb1161014f578063b767a098116100c1578063d0eb26b01161007a578063d0eb26b014610913578063d5abeb011461092f578063da3ef23f1461095a578063e985e9c514610976578063edec5f27146109b3578063f2fde38b146109cf57610272565b8063b767a098146107fe578063b88d4fde1461081a578063ba4e5c4914610843578063ba7d2c7614610880578063c6682862146108ab578063c87b56dd146108d657610272565b806394354fd01161011357806394354fd01461071c57806395d89b4114610747578063a0712d6814610772578063a22cb4651461078e578063a45ba8e7146107b7578063b071401b146107e257610272565b80636c0360eb146106475780636caede3d1461067257806370a082311461069d578063715018a6146106da5780638da5cb5b146106f157610272565b80633ccfd60b116101e85780634f6ccce7116101ac5780634f6ccce71461053f5780634fdd43cb1461057c578063518302271461059857806355f804b3146105c35780635c975abb146105df5780636352211e1461060a57610272565b80633ccfd60b1461049757806342842e0e146104a1578063438b6300146104ca57806344a0d68a146105075780634c2612471461052357610272565b806313faede61161023a57806313faede61461036157806318160ddd1461038c57806318cae269146103b757806323b872dd146103f45780632f745c591461041d5780633af32abf1461045a57610272565b806301ffc9a71461027757806302329a29146102b457806306fdde03146102d0578063081812fc146102fb578063095ea7b314610338575b600080fd5b34801561028357600080fd5b5061029e6004803603810190610299919061361a565b6109f8565b6040516102ab9190613662565b60405180910390f35b6102ce60048036038101906102c991906136a9565b610a72565b005b3480156102dc57600080fd5b506102e5610b0b565b6040516102f2919061376f565b60405180910390f35b34801561030757600080fd5b50610322600480360381019061031d91906137c7565b610b9d565b60405161032f9190613835565b60405180910390f35b34801561034457600080fd5b5061035f600480360381019061035a919061387c565b610c22565b005b34801561036d57600080fd5b50610376610d3a565b60405161038391906138cb565b60405180910390f35b34801561039857600080fd5b506103a1610d40565b6040516103ae91906138cb565b60405180910390f35b3480156103c357600080fd5b506103de60048036038101906103d991906138e6565b610d4d565b6040516103eb91906138cb565b60405180910390f35b34801561040057600080fd5b5061041b60048036038101906104169190613913565b610d65565b005b34801561042957600080fd5b50610444600480360381019061043f919061387c565b610dc5565b60405161045191906138cb565b60405180910390f35b34801561046657600080fd5b50610481600480360381019061047c91906138e6565b610e6a565b60405161048e9190613662565b60405180910390f35b61049f610f14565b005b3480156104ad57600080fd5b506104c860048036038101906104c39190613913565b611010565b005b3480156104d657600080fd5b506104f160048036038101906104ec91906138e6565b611030565b6040516104fe9190613a24565b60405180910390f35b610521600480360381019061051c91906137c7565b6110d6565b005b61053d60048036038101906105389190613b7b565b61115c565b005b34801561054b57600080fd5b50610566600480360381019061056191906137c7565b6111ff565b60405161057391906138cb565b60405180910390f35b61059660048036038101906105919190613b7b565b611270565b005b3480156105a457600080fd5b506105ad611306565b6040516105ba9190613662565b60405180910390f35b6105dd60048036038101906105d89190613b7b565b611319565b005b3480156105eb57600080fd5b506105f46113af565b6040516106019190613662565b60405180910390f35b34801561061657600080fd5b50610631600480360381019061062c91906137c7565b6113c2565b60405161063e9190613835565b60405180910390f35b34801561065357600080fd5b5061065c611474565b604051610669919061376f565b60405180910390f35b34801561067e57600080fd5b50610687611502565b6040516106949190613662565b60405180910390f35b3480156106a957600080fd5b506106c460048036038101906106bf91906138e6565b611515565b6040516106d191906138cb565b60405180910390f35b3480156106e657600080fd5b506106ef6115cd565b005b3480156106fd57600080fd5b50610706611655565b6040516107139190613835565b60405180910390f35b34801561072857600080fd5b5061073161167f565b60405161073e91906138cb565b60405180910390f35b34801561075357600080fd5b5061075c611685565b604051610769919061376f565b60405180910390f35b61078c600480360381019061078791906137c7565b611717565b005b34801561079a57600080fd5b506107b560048036038101906107b09190613bc4565b611a31565b005b3480156107c357600080fd5b506107cc611a47565b6040516107d9919061376f565b60405180910390f35b6107fc60048036038101906107f791906137c7565b611ad5565b005b610818600480360381019061081391906136a9565b611b5b565b005b34801561082657600080fd5b50610841600480360381019061083c9190613ca5565b611bf4565b005b34801561084f57600080fd5b5061086a600480360381019061086591906137c7565b611c56565b6040516108779190613835565b60405180910390f35b34801561088c57600080fd5b50610895611c95565b6040516108a291906138cb565b60405180910390f35b3480156108b757600080fd5b506108c0611c9b565b6040516108cd919061376f565b60405180910390f35b3480156108e257600080fd5b506108fd60048036038101906108f891906137c7565b611d29565b60405161090a919061376f565b60405180910390f35b61092d600480360381019061092891906137c7565b611e7c565b005b34801561093b57600080fd5b50610944611f02565b60405161095191906138cb565b60405180910390f35b610974600480360381019061096f9190613b7b565b611f26565b005b34801561098257600080fd5b5061099d60048036038101906109989190613d28565b611fbc565b6040516109aa9190613662565b60405180910390f35b6109cd60048036038101906109c89190613dc8565b612050565b005b3480156109db57600080fd5b506109f660048036038101906109f191906138e6565b6120f0565b005b60007f780e9d63000000000000000000000000000000000000000000000000000000007bffffffffffffffffffffffffffffffffffffffffffffffffffffffff1916827bffffffffffffffffffffffffffffffffffffffffffffffffffffffff19161480610a6b5750610a6a826121e8565b5b9050919050565b610a7a6122ca565b73ffffffffffffffffffffffffffffffffffffffff16610a98611655565b73ffffffffffffffffffffffffffffffffffffffff1614610aee576040517f08c379a0000000000000000000000000000000000000000000000000000000008152600401610ae590613e61565b60405180910390fd5b80601160006101000a81548160ff02191690831515021790555050565b606060008054610b1a90613eb0565b80601f0160208091040260200160405190810160405280929190818152602001828054610b4690613eb0565b8015610b935780601f10610b6857610100808354040283529160200191610b93565b820191906000526020600020905b815481529060010190602001808311610b7657829003601f168201915b5050505050905090565b6000610ba8826122d2565b610be7576040517f08c379a0000000000000000000000000000000000000000000000000000000008152600401610bde90613f54565b60405180910390fd5b6004600083815260200190815260200160002060009054906101000a900473ffffffffffffffffffffffffffffffffffffffff169050919050565b6000610c2d826113c2565b90508073ffffffffffffffffffffffffffffffffffffffff168373ffffffffffffffffffffffffffffffffffffffff161415610c9e576040517f08c379a0000000000000000000000000000000000000000000000000000000008152600401610c9590613fe6565b60405180910390fd5b8073ffffffffffffffffffffffffffffffffffffffff16610cbd6122ca565b73ffffffffffffffffffffffffffffffffffffffff161480610cec5750610ceb81610ce66122ca565b611fbc565b5b610d2b576040517f08c379a0000000000000000000000000000000000000000000000000000000008152600401610d2290614078565b60405180910390fd5b610d35838361233e565b505050565b600e5481565b6000600880549050905090565b60136020528060005260406000206000915090505481565b610d76610d706122ca565b826123f7565b610db5576040517f08c379a0000000000000000000000000000000000000000000000000000000008152600401610dac9061410a565b60405180910390fd5b610dc08383836124d5565b505050565b6000610dd083611515565b8210610e11576040517f08c379a0000000000000000000000000000000000000000000000000000000008152600401610e089061419c565b60405180910390fd5b600660008473ffffffffffffffffffffffffffffffffffffffff1673ffffffffffffffffffffffffffffffffffffffff168152602001908152602001600020600083815260200190815260200160002054905092915050565b600080601280549050905060005b81811015610f08578373ffffffffffffffffffffffffffffffffffffffff1660128281548110610eab57610eaa6141bc565b5b9060005260206000200160009054906101000a900473ffffffffffffffffffffffffffffffffffffffff1673ffffffffffffffffffffffffffffffffffffffff161415610efd57600192505050610f0f565b806001019050610e78565b5060009150505b919050565b610f1c6122ca565b73ffffffffffffffffffffffffffffffffffffffff16610f3a611655565b73ffffffffffffffffffffffffffffffffffffffff1614610f90576040517f08c379a0000000000000000000000000000000000000000000000000000000008152600401610f8790613e61565b60405180910390fd5b6000610f9a611655565b73ffffffffffffffffffffffffffffffffffffffff1647604051610fbd9061421c565b60006040518083038185875af1925050503d8060008114610ffa576040519150601f19603f3d011682016040523d82523d6000602084013e610fff565b606091505b505090508061100d57600080fd5b50565b61102b83838360405180602001604052806000815250611bf4565b505050565b6060600061103d83611515565b905060008167ffffffffffffffff81111561105b5761105a613a50565b5b6040519080825280602002602001820160405280156110895781602001602082028036833780820191505090505b50905060005b828110156110cb576110a18582610dc5565b8282815181106110b4576110b36141bc565b5b60200260200101818152505080600101905061108f565b508092505050919050565b6110de6122ca565b73ffffffffffffffffffffffffffffffffffffffff166110fc611655565b73ffffffffffffffffffffffffffffffffffffffff1614611152576040517f08c379a000000000000000000000000000000000000000000000000000000000815260040161114990613e61565b60405180910390fd5b80600e8190555050565b6111646122ca565b73ffffffffffffffffffffffffffffffffffffffff16611182611655565b73ffffffffffffffffffffffffffffffffffffffff16146111d8576040517f08c379a00000000000000000000000000000000000000000000000000000000081526004016111cf90613e61565b60405180910390fd5b6001601160016101000a81548160ff0219169083151502179055506111fc81611319565b50565b6000611209610d40565b821061124a576040517f08c379a0000000000000000000000000000000000000000000000000000000008152600401611241906142a3565b60405180910390fd5b6008828154811061125e5761125d6141bc565b5b90600052602060002001549050919050565b6112786122ca565b73ffffffffffffffffffffffffffffffffffffffff16611296611655565b73ffffffffffffffffffffffffffffffffffffffff16146112ec576040517f08c379a00000000000000000000000000000000000000000000000000000000081526004016112e390613e61565b60405180910390fd5b80600d908051906020019061130292919061344a565b5050565b601160019054906101000a900460ff1681565b6113216122ca565b73ffffffffffffffffffffffffffffffffffffffff1661133f611655565b73ffffffffffffffffffffffffffffffffffffffff1614611395576040517f08c379a000000000000000000000000000000000000000000000000000000000815260040161138c90613e61565b60405180910390fd5b80600b90805190602001906113ab92919061344a565b5050565b601160009054906101000a900460ff1681565b6000806002600084815260200190815260200160002060009054906101000a900473ffffffffffffffffffffffffffffffffffffffff169050600073ffffffffffffffffffffffffffffffffffffffff168173ffffffffffffffffffffffffffffffffffffffff16141561146b576040517f08c379a000000000000000000000000000000000000000000000000000000000815260040161146290614335565b60405180910390fd5b80915050919050565b600b805461148190613eb0565b80601f01602080910402602001604051908101604052809291908181526020018280546114ad90613eb0565b80156114fa5780601f106114cf576101008083540402835291602001916114fa565b820191906000526020600020905b8154815290600101906020018083116114dd57829003601f168201915b505050505081565b601160029054906101000a900460ff1681565b60008073ffffffffffffffffffffffffffffffffffffffff168273ffffffffffffffffffffffffffffffffffffffff161415611586576040517f08c379a000000000000000000000000000000000000000000000000000000000815260040161157d906143c7565b60405180910390fd5b600360008373ffffffffffffffffffffffffffffffffffffffff1673ffffffffffffffffffffffffffffffffffffffff168152602001908152602001600020549050919050565b6115d56122ca565b73ffffffffffffffffffffffffffffffffffffffff166115f3611655565b73ffffffffffffffffffffffffffffffffffffffff1614611649576040517f08c379a000000000000000000000000000000000000000000000000000000000815260040161164090613e61565b60405180910390fd5b611653600061273c565b565b6000600a60009054906101000a900473ffffffffffffffffffffffffffffffffffffffff16905090565b600f5481565b60606001805461169490613eb0565b80601f01602080910402602001604051908101604052809291908181526020018280546116c090613eb0565b801561170d5780601f106116e25761010080835404028352916020019161170d565b820191906000526020600020905b8154815290600101906020018083116116f057829003601f168201915b5050505050905090565b601160009054906101000a900460ff161561175e576040517f018a6b1300000000000000000000000000000000000000000000000000000000815260040160405180910390fd5b6000811415611799576040517f4a9e3a0000000000000000000000000000000000000000000000000000000000815260040160405180910390fd5b600f548111156117d5576040517f02e2622700000000000000000000000000000000000000000000000000000000815260040160405180910390fd5b60006117df610d40565b90507f0000000000000000000000000000000000000000000000000000000000000000828261180e9190614416565b1115611846576040517f4285bcd300000000000000000000000000000000000000000000000000000000815260040160405180910390fd5b61184e611655565b73ffffffffffffffffffffffffffffffffffffffff163373ffffffffffffffffffffffffffffffffffffffff16146119fe57601160029054906101000a900460ff1680156118a257506118a033610e6a565b155b156118e457336040517f5e063b5d0000000000000000000000000000000000000000000000000000000081526004016118db9190613835565b60405180910390fd5b81600e546118f2919061446c565b34101561192b576040517f772ddbcd00000000000000000000000000000000000000000000000000000000815260040160405180910390fd5b6000601360003373ffffffffffffffffffffffffffffffffffffffff1673ffffffffffffffffffffffffffffffffffffffff168152602001908152602001600020549050601054838261197e9190614416565b11156119b6576040517f64b19bbd00000000000000000000000000000000000000000000000000000000815260040160405180910390fd5b828101601360003373ffffffffffffffffffffffffffffffffffffffff1673ffffffffffffffffffffffffffffffffffffffff16815260200190815260200160002081905550505b6000600190505b828111611a2c57611a21338284611a1c9190614416565b612802565b806001019050611a05565b505050565b611a43611a3c6122ca565b8383612820565b5050565b600d8054611a5490613eb0565b80601f0160208091040260200160405190810160405280929190818152602001828054611a8090613eb0565b8015611acd5780601f10611aa257610100808354040283529160200191611acd565b820191906000526020600020905b815481529060010190602001808311611ab057829003601f168201915b505050505081565b611add6122ca565b73ffffffffffffffffffffffffffffffffffffffff16611afb611655565b73ffffffffffffffffffffffffffffffffffffffff1614611b51576040517f08c379a0000000000000000000000000000000000000000000000000000000008152600401611b4890613e61565b60405180910390fd5b80600f8190555050565b611b636122ca565b73ffffffffffffffffffffffffffffffffffffffff16611b81611655565b73ffffffffffffffffffffffffffffffffffffffff1614611bd7576040517f08c379a0000000000000000000000000000000000000000000000000000000008152600401611bce90613e61565b60405180910390fd5b80601160026101000a81548160ff02191690831515021790555050565b611c05611bff6122ca565b836123f7565b611c44576040517f08c379a0000000000000000000000000000000000000000000000000000000008152600401611c3b9061410a565b60405180910390fd5b611c508484848461298d565b50505050565b60128181548110611c6657600080fd5b906000526020600020016000915054906101000a900473ffffffffffffffffffffffffffffffffffffffff1681565b60105481565b600c8054611ca890613eb0565b80601f0160208091040260200160405190810160405280929190818152602001828054611cd490613eb0565b8015611d215780601f10611cf657610100808354040283529160200191611d21565b820191906000526020600020905b815481529060010190602001808311611d0457829003601f168201915b505050505081565b6060611d34826122d2565b611d7557816040517fe49761ce000000000000000000000000000000000000000000000000000000008152600401611d6c91906138cb565b60405180910390fd5b601160019054906101000a900460ff16611e1b57600d8054611d9690613eb0565b80601f0160208091040260200160405190810160405280929190818152602001828054611dc290613eb0565b8015611e0f5780601f10611de457610100808354040283529160200191611e0f565b820191906000526020600020905b815481529060010190602001808311611df257829003601f168201915b50505050509050611e77565b6000611e256129e9565b90506000815111611e455760405180602001604052806000815250611e73565b80611e4f84612a7b565b600c604051602001611e6393929190614596565b6040516020818303038152906040525b9150505b919050565b611e846122ca565b73ffffffffffffffffffffffffffffffffffffffff16611ea2611655565b73ffffffffffffffffffffffffffffffffffffffff1614611ef8576040517f08c379a0000000000000000000000000000000000000000000000000000000008152600401611eef90613e61565b60405180910390fd5b8060108190555050565b7f000000000000000000000000000000000000000000000000000000000000000081565b611f2e6122ca565b73ffffffffffffffffffffffffffffffffffffffff16611f4c611655565b73ffffffffffffffffffffffffffffffffffffffff1614611fa2576040517f08c379a0000000000000000000000000000000000000000000000000000000008152600401611f9990613e61565b60405180910390fd5b80600c9080519060200190611fb892919061344a565b5050565b6000600560008473ffffffffffffffffffffffffffffffffffffffff1673ffffffffffffffffffffffffffffffffffffffff16815260200190815260200160002060008373ffffffffffffffffffffffffffffffffffffffff1673ffffffffffffffffffffffffffffffffffffffff16815260200190815260200160002060009054906101000a900460ff16905092915050565b6120586122ca565b73ffffffffffffffffffffffffffffffffffffffff16612076611655565b73ffffffffffffffffffffffffffffffffffffffff16146120cc576040517f08c379a00000000000000000000000000000000000000000000000000000000081526004016120c390613e61565b60405180910390fd5b601260006120da91906134d0565b8181601291906120eb9291906134f1565b505050565b6120f86122ca565b73ffffffffffffffffffffffffffffffffffffffff16612116611655565b73ffffffffffffffffffffffffffffffffffffffff161461216c576040517f08c379a000000000000000000000000000000000000000000000000000000000815260040161216390613e61565b60405180910390fd5b600073ffffffffffffffffffffffffffffffffffffffff168173ffffffffffffffffffffffffffffffffffffffff1614156121dc576040517f08c379a00000000000000000000000000000000000000000000000000000000081526004016121d390614639565b60405180910390fd5b6121e58161273c565b50565b60007f80ac58cd000000000000000000000000000000000000000000000000000000007bffffffffffffffffffffffffffffffffffffffffffffffffffffffff1916827bffffffffffffffffffffffffffffffffffffffffffffffffffffffff191614806122b357507f5b5e139f000000000000000000000000000000000000000000000000000000007bffffffffffffffffffffffffffffffffffffffffffffffffffffffff1916827bffffffffffffffffffffffffffffffffffffffffffffffffffffffff1916145b806122c357506122c282612bdc565b5b9050919050565b600033905090565b60008073ffffffffffffffffffffffffffffffffffffffff166002600084815260200190815260200160002060009054906101000a900473ffffffffffffffffffffffffffffffffffffffff1673ffffffffffffffffffffffffffffffffffffffff1614159050919050565b816004600083815260200190815260200160002060006101000a81548173ffffffffffffffffffffffffffffffffffffffff021916908373ffffffffffffffffffffffffffffffffffffffff160217905550808273ffffffffffffffffffffffffffffffffffffffff166123b1836113c2565b73ffffffffffffffffffffffffffffffffffffffff167f8c5be1e5ebec7d5bd14f71427d1e84f3dd0314c0f7b2291e5b200ac8c7c3b92560405160405180910390a45050565b6000612402826122d2565b612441576040517f08c379a0000000000000000000000000000000000000000000000000000000008152600401612438906146cb565b60405180910390fd5b600061244c836113c2565b90508073ffffffffffffffffffffffffffffffffffffffff168473ffffffffffffffffffffffffffffffffffffffff16148061248e575061248d8185611fbc565b5b806124cc57508373ffffffffffffffffffffffffffffffffffffffff166124b484610b9d565b73ffffffffffffffffffffffffffffffffffffffff16145b91505092915050565b8273ffffffffffffffffffffffffffffffffffffffff166124f5826113c2565b73ffffffffffffffffffffffffffffffffffffffff161461254b576040517f08c379a00000000000000000000000000000000000000000000000000000000081526004016125429061475d565b60405180910390fd5b600073ffffffffffffffffffffffffffffffffffffffff168273ffffffffffffffffffffffffffffffffffffffff1614156125bb576040517f08c379a00000000000000000000000000000000000000000000000000000000081526004016125b2906147ef565b60405180910390fd5b6125c6838383612c46565b6125d160008261233e565b6001600360008573ffffffffffffffffffffffffffffffffffffffff1673ffffffffffffffffffffffffffffffffffffffff1681526020019081526020016000206000828254612621919061480f565b925050819055506001600360008473ffffffffffffffffffffffffffffffffffffffff1673ffffffffffffffffffffffffffffffffffffffff16815260200190815260200160002060008282546126789190614416565b92505081905550816002600083815260200190815260200160002060006101000a81548173ffffffffffffffffffffffffffffffffffffffff021916908373ffffffffffffffffffffffffffffffffffffffff160217905550808273ffffffffffffffffffffffffffffffffffffffff168473ffffffffffffffffffffffffffffffffffffffff167fddf252ad1be2c89b69c2b068fc378daa952ba7f163c4a11628f55a4df523b3ef60405160405180910390a4612737838383612d5a565b505050565b6000600a60009054906101000a900473ffffffffffffffffffffffffffffffffffffffff16905081600a60006101000a81548173ffffffffffffffffffffffffffffffffffffffff021916908373ffffffffffffffffffffffffffffffffffffffff1602179055508173ffffffffffffffffffffffffffffffffffffffff168173ffffffffffffffffffffffffffffffffffffffff167f8be0079c531659141344cd1fd0a4f28419497f9722a3daafe3b4186f6b6457e060405160405180910390a35050565b61281c828260405180602001604052806000815250612d5f565b5050565b8173ffffffffffffffffffffffffffffffffffffffff168373ffffffffffffffffffffffffffffffffffffffff16141561288f576040517f08c379a00000000000000000000000000000000000000000000000000000000081526004016128869061488f565b60405180910390fd5b80600560008573ffffffffffffffffffffffffffffffffffffffff1673ffffffffffffffffffffffffffffffffffffffff16815260200190815260200160002060008473ffffffffffffffffffffffffffffffffffffffff1673ffffffffffffffffffffffffffffffffffffffff16815260200190815260200160002060006101000a81548160ff0219169083151502179055508173ffffffffffffffffffffffffffffffffffffffff168373ffffffffffffffffffffffffffffffffffffffff167f17307eab39ab6107e8899845ad3d59bd9653f200f220920489ca2b5937696c31836040516129809190613662565b60405180910390a3505050565b6129988484846124d5565b6129a484848484612dba565b6129e3576040517f08c379a00000000000000000000000000000000000000000000000000000000081526004016129da90614921565b60405180910390fd5b50505050565b6060600b80546129f890613eb0565b80601f0160208091040260200160405190810160405280929190818152602001828054612a2490613eb0565b8015612a715780601f10612a4657610100808354040283529160200191612a71565b820191906000526020600020905b815481529060010190602001808311612a5457829003601f168201915b5050505050905090565b60606000821415612ac3576040518060400160405280600181526020017f30000000000000000000000000000000000000000000000000000000000000008152509050612bd7565b600082905060005b60008214612af5578080612ade90614941565b915050600a82612aee91906149b9565b9150612acb565b60008167ffffffffffffffff811115612b1157612b10613a50565b5b6040519080825280601f01601f191660200182016040528015612b435781602001600182028036833780820191505090505b5090505b60008514612bd057600182612b5c919061480f565b9150600a85612b6b91906149ea565b6030612b779190614416565b60f81b818381518110612b8d57612b8c6141bc565b5b60200101907effffffffffffffffffffffffffffffffffffffffffffffffffffffffffffff1916908160001a905350600a85612bc991906149b9565b9450612b47565b8093505050505b919050565b60007f01ffc9a7000000000000000000000000000000000000000000000000000000007bffffffffffffffffffffffffffffffffffffffffffffffffffffffff1916827bffffffffffffffffffffffffffffffffffffffffffffffffffffffff1916149050919050565b612c51838383612f42565b600073ffffffffffffffffffffffffffffffffffffffff168373ffffffffffffffffffffffffffffffffffffffff161415612c9457612c8f81612f47565b612cd3565b8173ffffffffffffffffffffffffffffffffffffffff168373ffffffffffffffffffffffffffffffffffffffff1614612cd257612cd18382612f90565b5b5b600073ffffffffffffffffffffffffffffffffffffffff168273ffffffffffffffffffffffffffffffffffffffff161415612d1657612d11816130fd565b612d55565b8273ffffffffffffffffffffffffffffffffffffffff168273ffffffffffffffffffffffffffffffffffffffff1614612d5457612d5382826131ce565b5b5b505050565b505050565b612d69838361324d565b612d766000848484612dba565b612db5576040517f08c379a0000000000000000000000000000000000000000000000000000000008152600401612dac90614921565b60405180910390fd5b505050565b6000612ddb8473ffffffffffffffffffffffffffffffffffffffff16613427565b15612f35578373ffffffffffffffffffffffffffffffffffffffff1663150b7a02612e046122ca565b8786866040518563ffffffff1660e01b8152600401612e269493929190614a70565b6020604051808303816000875af1925050508015612e6257506040513d601f19601f82011682018060405250810190612e5f9190614ad1565b60015b612ee5573d8060008114612e92576040519150601f19603f3d011682016040523d82523d6000602084013e612e97565b606091505b50600081511415612edd576040517f08c379a0000000000000000000000000000000000000000000000000000000008152600401612ed490614921565b60405180910390fd5b805181602001fd5b63150b7a0260e01b7bffffffffffffffffffffffffffffffffffffffffffffffffffffffff1916817bffffffffffffffffffffffffffffffffffffffffffffffffffffffff191614915050612f3a565b600190505b949350505050565b505050565b6008805490506009600083815260200190815260200160002081905550600881908060018154018082558091505060019003906000526020600020016000909190919091505550565b60006001612f9d84611515565b612fa7919061480f565b905060006007600084815260200190815260200160002054905081811461308c576000600660008673ffffffffffffffffffffffffffffffffffffffff1673ffffffffffffffffffffffffffffffffffffffff168152602001908152602001600020600084815260200190815260200160002054905080600660008773ffffffffffffffffffffffffffffffffffffffff1673ffffffffffffffffffffffffffffffffffffffff168152602001908152602001600020600084815260200190815260200160002081905550816007600083815260200190815260200160002081905550505b6007600084815260200190815260200160002060009055600660008573ffffffffffffffffffffffffffffffffffffffff1673ffffffffffffffffffffffffffffffffffffffff16815260200190815260200160002060008381526020019081526020016000206000905550505050565b60006001600880549050613111919061480f565b9050600060096000848152602001908152602001600020549050600060088381548110613141576131406141bc565b5b906000526020600020015490508060088381548110613163576131626141bc565b5b9060005260206000200181905550816009600083815260200190815260200160002081905550600960008581526020019081526020016000206000905560088054806131b2576131b1614afe565b5b6001900381819060005260206000200160009055905550505050565b60006131d983611515565b905081600660008573ffffffffffffffffffffffffffffffffffffffff1673ffffffffffffffffffffffffffffffffffffffff168152602001908152602001600020600083815260200190815260200160002081905550806007600084815260200190815260200160002081905550505050565b600073ffffffffffffffffffffffffffffffffffffffff168273ffffffffffffffffffffffffffffffffffffffff1614156132bd576040517f08c379a00000000000000000000000000000000000000000000000000000000081526004016132b490614b79565b60405180910390fd5b6132c6816122d2565b15613306576040517f08c379a00000000000000000000000000000000000000000000000000000000081526004016132fd90614be5565b60405180910390fd5b61331260008383612c46565b6001600360008473ffffffffffffffffffffffffffffffffffffffff1673ffffffffffffffffffffffffffffffffffffffff16815260200190815260200160002060008282546133629190614416565b92505081905550816002600083815260200190815260200160002060006101000a81548173ffffffffffffffffffffffffffffffffffffffff021916908373ffffffffffffffffffffffffffffffffffffffff160217905550808273ffffffffffffffffffffffffffffffffffffffff16600073ffffffffffffffffffffffffffffffffffffffff167fddf252ad1be2c89b69c2b068fc378daa952ba7f163c4a11628f55a4df523b3ef60405160405180910390a461342360008383612d5a565b5050565b6000808273ffffffffffffffffffffffffffffffffffffffff163b119050919050565b82805461345690613eb0565b90600052602060002090601f01602090048101928261347857600085556134bf565b82601f1061349157805160ff19168380011785556134bf565b828001600101855582156134bf579182015b828111156134be5782518255916020019190600101906134a3565b5b5090506134cc9190613591565b5090565b50805460008255906000526020600020908101906134ee9190613591565b50565b828054828255906000526020600020908101928215613580579160200282015b8281111561357f57823573ffffffffffffffffffffffffffffffffffffffff168260006101000a81548173ffffffffffffffffffffffffffffffffffffffff021916908373ffffffffffffffffffffffffffffffffffffffff16021790555091602001919060010190613511565b5b50905061358d9190613591565b5090565b5b808211156135aa576000816000905550600101613592565b5090565b6000604051905090565b600080fd5b600080fd5b60007fffffffff0000000000000000000000000000000000000000000000000000000082169050919050565b6135f7816135c2565b811461360257600080fd5b50565b600081359050613614816135ee565b92915050565b6000602082840312156136305761362f6135b8565b5b600061363e84828501613605565b91505092915050565b60008115159050919050565b61365c81613647565b82525050565b60006020820190506136776000830184613653565b92915050565b61368681613647565b811461369157600080fd5b50565b6000813590506136a38161367d565b92915050565b6000602082840312156136bf576136be6135b8565b5b60006136cd84828501613694565b91505092915050565b600081519050919050565b600082825260208201905092915050565b60005b838110156137105780820151818401526020810190506136f5565b8381111561371f576000848401525b50505050565b6000601f19601f8301169050919050565b6000613741826136d6565b61374b81856136e1565b935061375b8185602086016136f2565b61376481613725565b840191505092915050565b600060208201905081810360008301526137898184613736565b905092915050565b6000819050919050565b6137a481613791565b81146137af57600080fd5b50565b6000813590506137c18161379b565b92915050565b6000602082840312156137dd576137dc6135b8565b5b60006137eb848285016137b2565b91505092915050565b600073ffffffffffffffffffffffffffffffffffffffff82169050919050565b600061381f826137f4565b9050919050565b61382f81613814565b82525050565b600060208201905061384a6000830184613826565b92915050565b61385981613814565b811461386457600080fd5b50565b60008135905061387681613850565b92915050565b60008060408385031215613893576138926135b8565b5b60006138a185828601613867565b92505060206138b2858286016137b2565b9150509250929050565b6138c581613791565b82525050565b60006020820190506138e060008301846138bc565b92915050565b6000602082840312156138fc576138fb6135b8565b5b600061390a84828501613867565b91505092915050565b60008060006060848603121561392c5761392b6135b8565b5b600061393a86828701613867565b935050602061394b86828701613867565b925050604061395c868287016137b2565b9150509250925092565b600081519050919050565b600082825260208201905092915050565b6000819050602082019050919050565b61399b81613791565b82525050565b60006139ad8383613992565b60208301905092915050565b6000602082019050919050565b60006139d182613966565b6139db8185613971565b93506139e683613982565b8060005b83811015613a175781516139fe88826139a1565b9750613a09836139b9565b9250506001810190506139ea565b5085935050505092915050565b60006020820190508181036000830152613a3e81846139c6565b905092915050565b600080fd5b600080fd5b7f4e487b7100000000000000000000000000000000000000000000000000000000600052604160045260246000fd5b613a8882613725565b810181811067ffffffffffffffff82111715613aa757613aa6613a50565b5b80604052505050565b6000613aba6135ae565b9050613ac68282613a7f565b919050565b600067ffffffffffffffff821115613ae657613ae5613a50565b5b613aef82613725565b9050602081019050919050565b82818337600083830152505050565b6000613b1e613b1984613acb565b613ab0565b905082815260208101848484011115613b3a57613b39613a4b565b5b613b45848285613afc565b509392505050565b600082601f830112613b6257613b61613a46565b5b8135613b72848260208601613b0b565b91505092915050565b600060208284031215613b9157613b906135b8565b5b600082013567ffffffffffffffff811115613baf57613bae6135bd565b5b613bbb84828501613b4d565b91505092915050565b60008060408385031215613bdb57613bda6135b8565b5b6000613be985828601613867565b9250506020613bfa85828601613694565b9150509250929050565b600067ffffffffffffffff821115613c1f57613c1e613a50565b5b613c2882613725565b9050602081019050919050565b6000613c48613c4384613c04565b613ab0565b905082815260208101848484011115613c6457613c63613a4b565b5b613c6f848285613afc565b509392505050565b600082601f830112613c8c57613c8b613a46565b5b8135613c9c848260208601613c35565b91505092915050565b60008060008060808587031215613cbf57613cbe6135b8565b5b6000613ccd87828801613867565b9450506020613cde87828801613867565b9350506040613cef878288016137b2565b925050606085013567ffffffffffffffff811115613d1057613d0f6135bd565b5b613d1c87828801613c77565b91505092959194509250565b60008060408385031215613d3f57613d3e6135b8565b5b6000613d4d85828601613867565b9250506020613d5e85828601613867565b9150509250929050565b600080fd5b600080fd5b60008083601f840112613d8857613d87613a46565b5b8235905067ffffffffffffffff811115613da557613da4613d68565b5b602083019150836020820283011115613dc157613dc0613d6d565b5b9250929050565b60008060208385031215613ddf57613dde6135b8565b5b600083013567ffffffffffffffff811115613dfd57613dfc6135bd565b5b613e0985828601613d72565b92509250509250929050565b7f4f776e61626c653a2063616c6c6572206973206e6f7420746865206f776e6572600082015250565b6000613e4b6020836136e1565b9150613e5682613e15565b602082019050919050565b60006020820190508181036000830152613e7a81613e3e565b9050919050565b7f4e487b7100000000000000000000000000000000000000000000000000000000600052602260045260246000fd5b60006002820490506001821680613ec857607f821691505b60208210811415613edc57613edb613e81565b5b50919050565b7f4552433732313a20617070726f76656420717565727920666f72206e6f6e657860008201527f697374656e7420746f6b656e0000000000000000000000000000000000000000602082015250565b6000613f3e602c836136e1565b9150613f4982613ee2565b604082019050919050565b60006020820190508181036000830152613f6d81613f31565b9050919050565b7f4552433732313a20617070726f76616c20746f2063757272656e74206f776e6560008201527f7200000000000000000000000000000000000000000000000000000000000000602082015250565b6000613fd06021836136e1565b9150613fdb82613f74565b604082019050919050565b60006020820190508181036000830152613fff81613fc3565b9050919050565b7f4552433732313a20617070726f76652063616c6c6572206973206e6f74206f7760008201527f6e6572206e6f7220617070726f76656420666f7220616c6c0000000000000000602082015250565b60006140626038836136e1565b915061406d82614006565b604082019050919050565b6000602082019050818103600083015261409181614055565b9050919050565b7f4552433732313a207472616e736665722063616c6c6572206973206e6f74206f60008201527f776e6572206e6f7220617070726f766564000000000000000000000000000000602082015250565b60006140f46031836136e1565b91506140ff82614098565b604082019050919050565b60006020820190508181036000830152614123816140e7565b9050919050565b7f455243373231456e756d657261626c653a206f776e657220696e646578206f7560008201527f74206f6620626f756e6473000000000000000000000000000000000000000000602082015250565b6000614186602b836136e1565b91506141918261412a565b604082019050919050565b600060208201905081810360008301526141b581614179565b9050919050565b7f4e487b7100000000000000000000000000000000000000000000000000000000600052603260045260246000fd5b600081905092915050565b50565b60006142066000836141eb565b9150614211826141f6565b600082019050919050565b6000614227826141f9565b9150819050919050565b7f455243373231456e756d657261626c653a20676c6f62616c20696e646578206f60008201527f7574206f6620626f756e64730000000000000000000000000000000000000000602082015250565b600061428d602c836136e1565b915061429882614231565b604082019050919050565b600060208201905081810360008301526142bc81614280565b9050919050565b7f4552433732313a206f776e657220717565727920666f72206e6f6e657869737460008201527f656e7420746f6b656e0000000000000000000000000000000000000000000000602082015250565b600061431f6029836136e1565b915061432a826142c3565b604082019050919050565b6000602082019050818103600083015261434e81614312565b9050919050565b7f4552433732313a2062616c616e636520717565727920666f7220746865207a6560008201527f726f206164647265737300000000000000000000000000000000000000000000602082015250565b60006143b1602a836136e1565b91506143bc82614355565b604082019050919050565b600060208201905081810360008301526143e0816143a4565b9050919050565b7f4e487b7100000000000000000000000000000000000000000000000000000000600052601160045260246000fd5b600061442182613791565b915061442c83613791565b9250827fffffffffffffffffffffffffffffffffffffffffffffffffffffffffffffffff03821115614461576144606143e7565b5b828201905092915050565b600061447782613791565b915061448283613791565b9250817fffffffffffffffffffffffffffffffffffffffffffffffffffffffffffffffff04831182151516156144bb576144ba6143e7565b5b828202905092915050565b600081905092915050565b60006144dc826136d6565b6144e681856144c6565b93506144f68185602086016136f2565b80840191505092915050565b60008190508160005260206000209050919050565b6000815461452481613eb0565b61452e81866144c6565b94506001821660008114614549576001811461455a5761458d565b60ff1983168652818601935061458d565b61456385614502565b60005b8381101561458557815481890152600182019150602081019050614566565b838801955050505b50505092915050565b60006145a282866144d1565b91506145ae82856144d1565b91506145ba8284614517565b9150819050949350505050565b7f4f776e61626c653a206e6577206f776e657220697320746865207a65726f206160008201527f6464726573730000000000000000000000000000000000000000000000000000602082015250565b60006146236026836136e1565b915061462e826145c7565b604082019050919050565b6000602082019050818103600083015261465281614616565b9050919050565b7f4552433732313a206f70657261746f7220717565727920666f72206e6f6e657860008201527f697374656e7420746f6b656e0000000000000000000000000000000000000000602082015250565b60006146b5602c836136e1565b91506146c082614659565b604082019050919050565b600060208201905081810360008301526146e4816146a8565b9050919050565b7f4552433732313a207472616e736665722066726f6d20696e636f72726563742060008201527f6f776e6572000000000000000000000000000000000000000000000000000000602082015250565b60006147476025836136e1565b9150614752826146eb565b604082019050919050565b600060208201905081810360008301526147768161473a565b9050919050565b7f4552433732313a207472616e7366657220746f20746865207a65726f2061646460008201527f7265737300000000000000000000000000000000000000000000000000000000602082015250565b60006147d96024836136e1565b91506147e48261477d565b604082019050919050565b60006020820190508181036000830152614808816147cc565b9050919050565b600061481a82613791565b915061482583613791565b925082821015614838576148376143e7565b5b828203905092915050565b7f4552433732313a20617070726f766520746f2063616c6c657200000000000000600082015250565b60006148796019836136e1565b915061488482614843565b602082019050919050565b600060208201905081810360008301526148a88161486c565b9050919050565b7f4552433732313a207472616e7366657220746f206e6f6e20455243373231526560008201527f63656976657220696d706c656d656e7465720000000000000000000000000000602082015250565b600061490b6032836136e1565b9150614916826148af565b604082019050919050565b6000602082019050818103600083015261493a816148fe565b9050919050565b600061494c82613791565b91507fffffffffffffffffffffffffffffffffffffffffffffffffffffffffffffffff82141561497f5761497e6143e7565b5b600182019050919050565b7f4e487b7100000000000000000000000000000000000000000000000000000000600052601260045260246000fd5b60006149c482613791565b91506149cf83613791565b9250826149df576149de61498a565b5b828204905092915050565b60006149f582613791565b9150614a0083613791565b925082614a1057614a0f61498a565b5b828206905092915050565b600081519050919050565b600082825260208201905092915050565b6000614a4282614a1b565b614a4c8185614a26565b9350614a5c8185602086016136f2565b614a6581613725565b840191505092915050565b6000608082019050614a856000830187613826565b614a926020830186613826565b614a9f60408301856138bc565b8181036060830152614ab18184614a37565b905095945050505050565b600081519050614acb816135ee565b92915050565b600060208284031215614ae757614ae66135b8565b5b6000614af584828501614abc565b91505092915050565b7f4e487b7100000000000000000000000000000000000000000000000000000000600052603160045260246000fd5b7f4552433732313a206d696e7420746f20746865207a65726f2061646472657373600082015250565b6000614b636020836136e1565b9150614b6e82614b2d565b602082019050919050565b60006020820190508181036000830152614b9281614b56565b9050919050565b7f4552433732313a20746f6b656e20616c7265616479206d696e74656400000000600082015250565b6000614bcf601c836136e1565b9150614bda82614b99565b602082019050919050565b60006020820190508181036000830152614bfe81614bc2565b905091905056fea2646970667358221220e8f7474ca0ef2220ea428efec5d2f470c3b2131da958027f20bbc44ecb65fd9164736f6c634300080a0033",
  "linkReferences": {},
  "deployedLinkReferences": {}
}